{
  "abi": [
    {
      "constant": true,
      "inputs": [
        {
          "name": "raw_transaction",
          "type": "bytes"
        }
      ],
      "name": "decode_transaction",
      "outputs": [
        {
          "name": "",
          "type": "uint256"
        },
        {
          "name": "",
          "type": "uint256"
        },
        {
          "name": "",
          "type": "uint256"
        },
        {
          "name": "",
          "type": "address"
        },
        {
          "name": "",
          "type": "uint256"
        },
        {
          "name": "",
          "type": "bytes"
        }
      ],
      "payable": false,
      "stateMutability": "pure",
      "type": "function"
    }
  ],
  "devdoc": {
    "methods": {}
  },
  "evm": {
    "assembly": "    /* \"RLPReader.sol\":96:7555   */\n  dataSize(sub_0)\n  dataOffset(sub_0)\n    /* \"--CODEGEN--\":132:134   */\n  0x0b\n    /* \"--CODEGEN--\":166:173   */\n  dup3\n    /* \"--CODEGEN--\":155:164   */\n  dup3\n    /* \"--CODEGEN--\":146:153   */\n  dup3\n    /* \"--CODEGEN--\":137:174   */\n  codecopy\n    /* \"--CODEGEN--\":252:259   */\n  dup1\n    /* \"--CODEGEN--\":246:260   */\n  mload\n    /* \"--CODEGEN--\":243:244   */\n  0x00\n    /* \"--CODEGEN--\":238:261   */\n  byte\n    /* \"--CODEGEN--\":232:236   */\n  0x73\n    /* \"--CODEGEN--\":229:262   */\n  eq\n    /* \"--CODEGEN--\":270:271   */\n  0x00\n    /* \"--CODEGEN--\":265:285   */\n  dup2\n  eq\n  tag_2\n  jumpi\n    /* \"--CODEGEN--\":222:285   */\n  jump(tag_1)\n    /* \"--CODEGEN--\":265:285   */\ntag_2:\n    /* \"--CODEGEN--\":274:283   */\n  invalid\n    /* \"--CODEGEN--\":222:285   */\ntag_1:\n  pop\n    /* \"--CODEGEN--\":298:307   */\n  address\n    /* \"--CODEGEN--\":295:296   */\n  0x00\n    /* \"--CODEGEN--\":288:308   */\n  mstore\n    /* \"--CODEGEN--\":328:332   */\n  0x73\n    /* \"--CODEGEN--\":319:326   */\n  dup2\n    /* \"--CODEGEN--\":311:333   */\n  mstore8\n    /* \"--CODEGEN--\":352:359   */\n  dup3\n    /* \"--CODEGEN--\":343:350   */\n  dup2\n    /* \"--CODEGEN--\":336:360   */\n  return\nstop\n\nsub_0: assembly {\n        /* \"RLPReader.sol\":96:7555   */\n      eq(address, deployTimeAddress())\n      mstore(0x40, 0x80)\n      jumpi(tag_1, lt(calldatasize, 0x04))\n      calldataload(0x00)\n      0x0100000000000000000000000000000000000000000000000000000000\n      swap1\n      div\n      dup1\n      0x781cebc1\n      eq\n      tag_2\n      jumpi\n    tag_1:\n      0x00\n      dup1\n      revert\n        /* \"RLPReader.sol\":713:1105   */\n    tag_2:\n      tag_3\n      0x04\n      dup1\n      calldatasize\n      sub\n        /* \"--CODEGEN--\":13:15   */\n      0x20\n        /* \"--CODEGEN--\":8:11   */\n      dup2\n        /* \"--CODEGEN--\":5:16   */\n      lt\n        /* \"--CODEGEN--\":2:4   */\n      iszero\n      tag_4\n      jumpi\n        /* \"--CODEGEN--\":29:30   */\n      0x00\n        /* \"--CODEGEN--\":26:27   */\n      dup1\n        /* \"--CODEGEN--\":19:31   */\n      revert\n        /* \"--CODEGEN--\":2:4   */\n    tag_4:\n        /* \"RLPReader.sol\":713:1105   */\n      dup2\n      add\n      swap1\n      dup1\n      dup1\n      calldataload\n      swap1\n      0x20\n      add\n      swap1\n        /* \"--CODEGEN--\":21:32   */\n      0x0100000000\n        /* \"--CODEGEN--\":8:19   */\n      dup2\n        /* \"--CODEGEN--\":5:33   */\n      gt\n        /* \"--CODEGEN--\":2:4   */\n      iszero\n      tag_5\n      jumpi\n        /* \"--CODEGEN--\":46:47   */\n      0x00\n        /* \"--CODEGEN--\":43:44   */\n      dup1\n        /* \"--CODEGEN--\":36:48   */\n      revert\n        /* \"--CODEGEN--\":2:4   */\n    tag_5:\n        /* \"RLPReader.sol\":713:1105   */\n      dup3\n      add\n        /* \"--CODEGEN--\":35:44   */\n      dup4\n        /* \"--CODEGEN--\":28:32   */\n      0x20\n        /* \"--CODEGEN--\":12:26   */\n      dup3\n        /* \"--CODEGEN--\":8:33   */\n      add\n        /* \"--CODEGEN--\":5:45   */\n      gt\n        /* \"--CODEGEN--\":2:4   */\n      iszero\n      tag_6\n      jumpi\n        /* \"--CODEGEN--\":58:59   */\n      0x00\n        /* \"--CODEGEN--\":55:56   */\n      dup1\n        /* \"--CODEGEN--\":48:60   */\n      revert\n        /* \"--CODEGEN--\":2:4   */\n    tag_6:\n        /* \"RLPReader.sol\":713:1105   */\n      dup1\n      calldataload\n      swap1\n      0x20\n      add\n      swap2\n        /* \"--CODEGEN--\":100:109   */\n      dup5\n        /* \"--CODEGEN--\":95:96   */\n      0x01\n        /* \"--CODEGEN--\":81:93   */\n      dup4\n        /* \"--CODEGEN--\":77:97   */\n      mul\n        /* \"--CODEGEN--\":67:75   */\n      dup5\n        /* \"--CODEGEN--\":63:98   */\n      add\n        /* \"--CODEGEN--\":60:110   */\n      gt\n        /* \"--CODEGEN--\":39:50   */\n      0x0100000000\n        /* \"--CODEGEN--\":25:37   */\n      dup4\n        /* \"--CODEGEN--\":22:51   */\n      gt\n        /* \"--CODEGEN--\":11:118   */\n      or\n        /* \"--CODEGEN--\":8:10   */\n      iszero\n      tag_7\n      jumpi\n        /* \"--CODEGEN--\":131:132   */\n      0x00\n        /* \"--CODEGEN--\":128:129   */\n      dup1\n        /* \"--CODEGEN--\":121:133   */\n      revert\n        /* \"--CODEGEN--\":8:10   */\n    tag_7:\n        /* \"RLPReader.sol\":713:1105   */\n      swap2\n      swap1\n      dup1\n      dup1\n      0x1f\n      add\n      0x20\n      dup1\n      swap2\n      div\n      mul\n      0x20\n      add\n      mload(0x40)\n      swap1\n      dup2\n      add\n      0x40\n      mstore\n      dup1\n      swap4\n      swap3\n      swap2\n      swap1\n      dup2\n      dup2\n      mstore\n      0x20\n      add\n      dup4\n      dup4\n        /* \"--CODEGEN--\":30:33   */\n      dup1\n        /* \"--CODEGEN--\":22:28   */\n      dup3\n        /* \"--CODEGEN--\":14:20   */\n      dup5\n        /* \"--CODEGEN--\":1:34   */\n      calldatacopy\n        /* \"--CODEGEN--\":99:100   */\n      0x00\n        /* \"--CODEGEN--\":93:96   */\n      dup2\n        /* \"--CODEGEN--\":85:91   */\n      dup5\n        /* \"--CODEGEN--\":81:97   */\n      add\n        /* \"--CODEGEN--\":74:101   */\n      mstore\n        /* \"--CODEGEN--\":137:141   */\n      0x1f\n        /* \"--CODEGEN--\":133:142   */\n      not\n        /* \"--CODEGEN--\":126:130   */\n      0x1f\n        /* \"--CODEGEN--\":121:124   */\n      dup3\n        /* \"--CODEGEN--\":117:131   */\n      add\n        /* \"--CODEGEN--\":113:143   */\n      and\n        /* \"--CODEGEN--\":106:143   */\n      swap1\n      pop\n        /* \"--CODEGEN--\":169:172   */\n      dup1\n        /* \"--CODEGEN--\":161:167   */\n      dup4\n        /* \"--CODEGEN--\":157:173   */\n      add\n        /* \"--CODEGEN--\":147:173   */\n      swap3\n      pop\n        /* \"RLPReader.sol\":713:1105   */\n      pop\n      pop\n      pop\n      pop\n      pop\n      pop\n      swap2\n      swap3\n      swap2\n      swap3\n      swap1\n      pop\n      pop\n      pop\n      tag_8\n      jump\t// in\n    tag_3:\n      mload(0x40)\n      dup1\n      dup8\n      dup2\n      mstore\n      0x20\n      add\n      dup7\n      dup2\n      mstore\n      0x20\n      add\n      dup6\n      dup2\n      mstore\n      0x20\n      add\n      dup5\n      0xffffffffffffffffffffffffffffffffffffffff\n      and\n      0xffffffffffffffffffffffffffffffffffffffff\n      and\n      dup2\n      mstore\n      0x20\n      add\n      dup4\n      dup2\n      mstore\n      0x20\n      add\n      dup1\n      0x20\n      add\n      dup3\n      dup2\n      sub\n      dup3\n      mstore\n      dup4\n      dup2\n      dup2\n      mload\n      dup2\n      mstore\n      0x20\n      add\n      swap2\n      pop\n      dup1\n      mload\n      swap1\n      0x20\n      add\n      swap1\n      dup1\n      dup4\n      dup4\n        /* \"--CODEGEN--\":23:24   */\n      0x00\n        /* \"--CODEGEN--\":8:108   */\n    tag_9:\n        /* \"--CODEGEN--\":33:36   */\n      dup4\n        /* \"--CODEGEN--\":30:31   */\n      dup2\n        /* \"--CODEGEN--\":27:37   */\n      lt\n        /* \"--CODEGEN--\":8:108   */\n      iszero\n      tag_10\n      jumpi\n        /* \"--CODEGEN--\":99:100   */\n      dup1\n        /* \"--CODEGEN--\":94:97   */\n      dup3\n        /* \"--CODEGEN--\":90:101   */\n      add\n        /* \"--CODEGEN--\":84:102   */\n      mload\n        /* \"--CODEGEN--\":80:81   */\n      dup2\n        /* \"--CODEGEN--\":75:78   */\n      dup5\n        /* \"--CODEGEN--\":71:82   */\n      add\n        /* \"--CODEGEN--\":64:103   */\n      mstore\n        /* \"--CODEGEN--\":52:54   */\n      0x20\n        /* \"--CODEGEN--\":49:50   */\n      dup2\n        /* \"--CODEGEN--\":45:55   */\n      add\n        /* \"--CODEGEN--\":40:55   */\n      swap1\n      pop\n        /* \"--CODEGEN--\":8:108   */\n      jump(tag_9)\n    tag_10:\n        /* \"--CODEGEN--\":12:26   */\n      pop\n        /* \"RLPReader.sol\":713:1105   */\n      pop\n      pop\n      pop\n      swap1\n      pop\n      swap1\n      dup2\n      add\n      swap1\n      0x1f\n      and\n      dup1\n      iszero\n      tag_12\n      jumpi\n      dup1\n      dup3\n      sub\n      dup1\n      mload\n      0x01\n      dup4\n      0x20\n      sub\n      0x0100\n      exp\n      sub\n      not\n      and\n      dup2\n      mstore\n      0x20\n      add\n      swap2\n      pop\n    tag_12:\n      pop\n      swap8\n      pop\n      pop\n      pop\n      pop\n      pop\n      pop\n      pop\n      pop\n      mload(0x40)\n      dup1\n      swap2\n      sub\n      swap1\n      return\n    tag_8:\n        /* \"RLPReader.sol\":792:796   */\n      0x00\n        /* \"RLPReader.sol\":798:802   */\n      dup1\n        /* \"RLPReader.sol\":804:808   */\n      0x00\n        /* \"RLPReader.sol\":810:817   */\n      dup1\n        /* \"RLPReader.sol\":819:823   */\n      0x00\n        /* \"RLPReader.sol\":825:837   */\n      0x60\n        /* \"RLPReader.sol\":848:881   */\n      dup1\n        /* \"RLPReader.sol\":884:920   */\n      tag_14\n        /* \"RLPReader.sol\":884:911   */\n      tag_15\n        /* \"RLPReader.sol\":884:899   */\n      dup10\n        /* \"RLPReader.sol\":884:909   */\n      tag_16\n        /* \"RLPReader.sol\":884:911   */\n      jump\t// in\n    tag_15:\n        /* \"RLPReader.sol\":884:918   */\n      tag_17\n        /* \"RLPReader.sol\":884:920   */\n      jump\t// in\n    tag_14:\n        /* \"RLPReader.sol\":848:920   */\n      swap1\n      pop\n        /* \"RLPReader.sol\":975:993   */\n      tag_18\n        /* \"RLPReader.sol\":975:981   */\n      dup2\n        /* \"RLPReader.sol\":982:983   */\n      0x00\n        /* \"RLPReader.sol\":975:984   */\n      dup2\n      mload\n      dup2\n      lt\n      iszero\n      iszero\n      tag_19\n      jumpi\n      invalid\n    tag_19:\n      swap1\n      0x20\n      add\n      swap1\n      0x20\n      mul\n      add\n      mload\n        /* \"RLPReader.sol\":975:991   */\n      tag_20\n        /* \"RLPReader.sol\":975:993   */\n      jump\t// in\n    tag_18:\n        /* \"RLPReader.sol\":995:1013   */\n      tag_21\n        /* \"RLPReader.sol\":995:1001   */\n      dup3\n        /* \"RLPReader.sol\":1002:1003   */\n      0x01\n        /* \"RLPReader.sol\":995:1004   */\n      dup2\n      mload\n      dup2\n      lt\n      iszero\n      iszero\n      tag_22\n      jumpi\n      invalid\n    tag_22:\n      swap1\n      0x20\n      add\n      swap1\n      0x20\n      mul\n      add\n      mload\n        /* \"RLPReader.sol\":995:1011   */\n      tag_20\n        /* \"RLPReader.sol\":995:1013   */\n      jump\t// in\n    tag_21:\n        /* \"RLPReader.sol\":1015:1033   */\n      tag_23\n        /* \"RLPReader.sol\":1015:1021   */\n      dup4\n        /* \"RLPReader.sol\":1022:1023   */\n      0x02\n        /* \"RLPReader.sol\":1015:1024   */\n      dup2\n      mload\n      dup2\n      lt\n      iszero\n      iszero\n      tag_24\n      jumpi\n      invalid\n    tag_24:\n      swap1\n      0x20\n      add\n      swap1\n      0x20\n      mul\n      add\n      mload\n        /* \"RLPReader.sol\":1015:1031   */\n      tag_20\n        /* \"RLPReader.sol\":1015:1033   */\n      jump\t// in\n    tag_23:\n        /* \"RLPReader.sol\":1035:1056   */\n      tag_25\n        /* \"RLPReader.sol\":1035:1041   */\n      dup5\n        /* \"RLPReader.sol\":1042:1043   */\n      0x03\n        /* \"RLPReader.sol\":1035:1044   */\n      dup2\n      mload\n      dup2\n      lt\n      iszero\n      iszero\n      tag_26\n      jumpi\n      invalid\n    tag_26:\n      swap1\n      0x20\n      add\n      swap1\n      0x20\n      mul\n      add\n      mload\n        /* \"RLPReader.sol\":1035:1054   */\n      tag_27\n        /* \"RLPReader.sol\":1035:1056   */\n      jump\t// in\n    tag_25:\n        /* \"RLPReader.sol\":1058:1076   */\n      tag_28\n        /* \"RLPReader.sol\":1058:1064   */\n      dup6\n        /* \"RLPReader.sol\":1065:1066   */\n      0x04\n        /* \"RLPReader.sol\":1058:1067   */\n      dup2\n      mload\n      dup2\n      lt\n      iszero\n      iszero\n      tag_29\n      jumpi\n      invalid\n    tag_29:\n      swap1\n      0x20\n      add\n      swap1\n      0x20\n      mul\n      add\n      mload\n        /* \"RLPReader.sol\":1058:1074   */\n      tag_20\n        /* \"RLPReader.sol\":1058:1076   */\n      jump\t// in\n    tag_28:\n        /* \"RLPReader.sol\":1078:1097   */\n      tag_30\n        /* \"RLPReader.sol\":1078:1084   */\n      dup7\n        /* \"RLPReader.sol\":1085:1086   */\n      0x05\n        /* \"RLPReader.sol\":1078:1087   */\n      dup2\n      mload\n      dup2\n      lt\n      iszero\n      iszero\n      tag_31\n      jumpi\n      invalid\n    tag_31:\n      swap1\n      0x20\n      add\n      swap1\n      0x20\n      mul\n      add\n      mload\n        /* \"RLPReader.sol\":1078:1095   */\n      tag_32\n        /* \"RLPReader.sol\":1078:1097   */\n      jump\t// in\n    tag_30:\n        /* \"RLPReader.sol\":967:1098   */\n      swap7\n      pop\n      swap7\n      pop\n      swap7\n      pop\n      swap7\n      pop\n      swap7\n      pop\n      swap7\n      pop\n      pop\n        /* \"RLPReader.sol\":713:1105   */\n      swap2\n      swap4\n      swap6\n      pop\n      swap2\n      swap4\n      swap6\n      jump\t// out\n        /* \"RLPReader.sol\":1410:1691   */\n    tag_16:\n        /* \"RLPReader.sol\":1471:1485   */\n      tag_33\n      tag_34\n      jump\t// in\n    tag_33:\n        /* \"RLPReader.sol\":1516:1517   */\n      0x00\n        /* \"RLPReader.sol\":1501:1505   */\n      dup3\n        /* \"RLPReader.sol\":1501:1512   */\n      mload\n        /* \"RLPReader.sol\":1501:1517   */\n      eq\n        /* \"RLPReader.sol\":1497:1551   */\n      iszero\n      tag_36\n      jumpi\n        /* \"RLPReader.sol\":1538:1551   */\n      0x40\n      dup1\n      mload\n      swap1\n      dup2\n      add\n      0x40\n      mstore\n      dup1\n        /* \"RLPReader.sol\":1546:1547   */\n      0x00\n        /* \"RLPReader.sol\":1538:1551   */\n      dup2\n      mstore\n      0x20\n      add\n        /* \"RLPReader.sol\":1549:1550   */\n      0x00\n        /* \"RLPReader.sol\":1538:1551   */\n      dup2\n      mstore\n      pop\n        /* \"RLPReader.sol\":1531:1551   */\n      swap1\n      pop\n      jump(tag_35)\n        /* \"RLPReader.sol\":1497:1551   */\n    tag_36:\n        /* \"RLPReader.sol\":1561:1572   */\n      0x00\n        /* \"RLPReader.sol\":1625:1629   */\n      0x20\n        /* \"RLPReader.sol\":1619:1623   */\n      dup4\n        /* \"RLPReader.sol\":1615:1630   */\n      add\n        /* \"RLPReader.sol\":1605:1630   */\n      swap1\n      pop\n        /* \"RLPReader.sol\":1656:1684   */\n      0x40\n      dup1\n      mload\n      swap1\n      dup2\n      add\n      0x40\n      mstore\n      dup1\n        /* \"RLPReader.sol\":1664:1668   */\n      dup5\n        /* \"RLPReader.sol\":1664:1675   */\n      mload\n        /* \"RLPReader.sol\":1656:1684   */\n      dup2\n      mstore\n      0x20\n      add\n        /* \"RLPReader.sol\":1677:1683   */\n      dup3\n        /* \"RLPReader.sol\":1656:1684   */\n      dup2\n      mstore\n      pop\n        /* \"RLPReader.sol\":1649:1684   */\n      swap2\n      pop\n      pop\n        /* \"RLPReader.sol\":1410:1691   */\n    tag_35:\n      swap2\n      swap1\n      pop\n      jump\t// out\n        /* \"RLPReader.sol\":1754:2242   */\n    tag_17:\n        /* \"RLPReader.sol\":1814:1837   */\n      0x60\n        /* \"RLPReader.sol\":1857:1869   */\n      tag_38\n        /* \"RLPReader.sol\":1864:1868   */\n      dup3\n        /* \"RLPReader.sol\":1857:1863   */\n      tag_39\n        /* \"RLPReader.sol\":1857:1869   */\n      jump\t// in\n    tag_38:\n        /* \"RLPReader.sol\":1849:1887   */\n      iszero\n      iszero\n      tag_40\n      jumpi\n      mload(0x40)\n      0x08c379a000000000000000000000000000000000000000000000000000000000\n      dup2\n      mstore\n      0x04\n      add\n      dup1\n      dup1\n      0x20\n      add\n      dup3\n      dup2\n      sub\n      dup3\n      mstore\n      0x0d\n      dup2\n      mstore\n      0x20\n      add\n      dup1\n      0x69734c697374206661696c656400000000000000000000000000000000000000\n      dup2\n      mstore\n      pop\n      0x20\n      add\n      swap2\n      pop\n      pop\n      mload(0x40)\n      dup1\n      swap2\n      sub\n      swap1\n      revert\n    tag_40:\n        /* \"RLPReader.sol\":1897:1907   */\n      0x00\n        /* \"RLPReader.sol\":1910:1924   */\n      tag_41\n        /* \"RLPReader.sol\":1919:1923   */\n      dup4\n        /* \"RLPReader.sol\":1910:1918   */\n      tag_42\n        /* \"RLPReader.sol\":1910:1924   */\n      jump\t// in\n    tag_41:\n        /* \"RLPReader.sol\":1897:1924   */\n      swap1\n      pop\n        /* \"RLPReader.sol\":1957:1962   */\n      dup1\n        /* \"RLPReader.sol\":1943:1963   */\n      mload(0x40)\n      swap1\n      dup1\n      dup3\n      mstore\n      dup1\n      0x20\n      mul\n      0x20\n      add\n      dup3\n      add\n      0x40\n      mstore\n      dup1\n      iszero\n      tag_43\n      jumpi\n      dup2\n      0x20\n      add\n    tag_44:\n      tag_45\n      tag_46\n      jump\t// in\n    tag_45:\n      dup2\n      mstore\n      0x20\n      add\n      swap1\n      0x01\n      swap1\n      sub\n      swap1\n      dup2\n      tag_44\n      jumpi\n      swap1\n      pop\n    tag_43:\n      pop\n        /* \"RLPReader.sol\":1934:1963   */\n      swap2\n      pop\n        /* \"RLPReader.sol\":1973:1984   */\n      0x00\n        /* \"RLPReader.sol\":2001:2028   */\n      tag_47\n        /* \"RLPReader.sol\":2016:2020   */\n      dup5\n        /* \"RLPReader.sol\":2016:2027   */\n      0x20\n      add\n      mload\n        /* \"RLPReader.sol\":2001:2015   */\n      tag_48\n        /* \"RLPReader.sol\":2001:2028   */\n      jump\t// in\n    tag_47:\n        /* \"RLPReader.sol\":1987:1991   */\n      dup5\n        /* \"RLPReader.sol\":1987:1998   */\n      0x20\n      add\n      mload\n        /* \"RLPReader.sol\":1987:2028   */\n      add\n        /* \"RLPReader.sol\":1973:2028   */\n      swap1\n      pop\n        /* \"RLPReader.sol\":2038:2050   */\n      0x00\n        /* \"RLPReader.sol\":2065:2071   */\n      dup1\n        /* \"RLPReader.sol\":2074:2075   */\n      0x00\n        /* \"RLPReader.sol\":2065:2075   */\n      swap1\n      pop\n        /* \"RLPReader.sol\":2060:2236   */\n    tag_49:\n        /* \"RLPReader.sol\":2081:2086   */\n      dup4\n        /* \"RLPReader.sol\":2077:2078   */\n      dup2\n        /* \"RLPReader.sol\":2077:2086   */\n      lt\n        /* \"RLPReader.sol\":2060:2236   */\n      iszero\n      tag_50\n      jumpi\n        /* \"RLPReader.sol\":2117:2136   */\n      tag_52\n        /* \"RLPReader.sol\":2129:2135   */\n      dup4\n        /* \"RLPReader.sol\":2117:2128   */\n      tag_53\n        /* \"RLPReader.sol\":2117:2136   */\n      jump\t// in\n    tag_52:\n        /* \"RLPReader.sol\":2107:2136   */\n      swap2\n      pop\n        /* \"RLPReader.sol\":2162:2186   */\n      0x40\n      dup1\n      mload\n      swap1\n      dup2\n      add\n      0x40\n      mstore\n      dup1\n        /* \"RLPReader.sol\":2170:2177   */\n      dup4\n        /* \"RLPReader.sol\":2162:2186   */\n      dup2\n      mstore\n      0x20\n      add\n        /* \"RLPReader.sol\":2179:2185   */\n      dup5\n        /* \"RLPReader.sol\":2162:2186   */\n      dup2\n      mstore\n      pop\n        /* \"RLPReader.sol\":2150:2156   */\n      dup6\n        /* \"RLPReader.sol\":2157:2158   */\n      dup3\n        /* \"RLPReader.sol\":2150:2159   */\n      dup2\n      mload\n      dup2\n      lt\n      iszero\n      iszero\n      tag_54\n      jumpi\n      invalid\n    tag_54:\n      swap1\n      0x20\n      add\n      swap1\n      0x20\n      mul\n      add\n        /* \"RLPReader.sol\":2150:2186   */\n      dup2\n      swap1\n      mstore\n      pop\n        /* \"RLPReader.sol\":2218:2225   */\n      dup2\n        /* \"RLPReader.sol\":2209:2215   */\n      dup4\n        /* \"RLPReader.sol\":2209:2225   */\n      add\n        /* \"RLPReader.sol\":2200:2225   */\n      swap3\n      pop\n        /* \"RLPReader.sol\":2088:2091   */\n      dup1\n      dup1\n      0x01\n      add\n      swap2\n      pop\n      pop\n        /* \"RLPReader.sol\":2060:2236   */\n      jump(tag_49)\n    tag_50:\n      pop\n        /* \"RLPReader.sol\":1754:2242   */\n      pop\n      pop\n      pop\n      swap2\n      swap1\n      pop\n      jump\t// out\n        /* \"RLPReader.sol\":5947:6324   */\n    tag_20:\n        /* \"RLPReader.sol\":6007:6011   */\n      0x00\n        /* \"RLPReader.sol\":6023:6034   */\n      dup1\n        /* \"RLPReader.sol\":6037:6064   */\n      tag_56\n        /* \"RLPReader.sol\":6052:6056   */\n      dup4\n        /* \"RLPReader.sol\":6052:6063   */\n      0x20\n      add\n      mload\n        /* \"RLPReader.sol\":6037:6051   */\n      tag_48\n        /* \"RLPReader.sol\":6037:6064   */\n      jump\t// in\n    tag_56:\n        /* \"RLPReader.sol\":6023:6064   */\n      swap1\n      pop\n        /* \"RLPReader.sol\":6074:6082   */\n      0x00\n        /* \"RLPReader.sol\":6096:6102   */\n      dup2\n        /* \"RLPReader.sol\":6085:6089   */\n      dup5\n        /* \"RLPReader.sol\":6085:6093   */\n      0x00\n      add\n      mload\n        /* \"RLPReader.sol\":6085:6102   */\n      sub\n        /* \"RLPReader.sol\":6074:6102   */\n      swap1\n      pop\n        /* \"RLPReader.sol\":6112:6123   */\n      0x00\n        /* \"RLPReader.sol\":6140:6146   */\n      dup3\n        /* \"RLPReader.sol\":6126:6130   */\n      dup6\n        /* \"RLPReader.sol\":6126:6137   */\n      0x20\n      add\n      mload\n        /* \"RLPReader.sol\":6126:6146   */\n      add\n        /* \"RLPReader.sol\":6112:6146   */\n      swap1\n      pop\n        /* \"RLPReader.sol\":6156:6167   */\n      0x00\n        /* \"RLPReader.sol\":6246:6249   */\n      dup3\n        /* \"RLPReader.sol\":6242:6244   */\n      0x20\n        /* \"RLPReader.sol\":6238:6250   */\n      sub\n        /* \"RLPReader.sol\":6233:6236   */\n      0x0100\n        /* \"RLPReader.sol\":6229:6251   */\n      exp\n        /* \"RLPReader.sol\":6220:6226   */\n      dup3\n        /* \"RLPReader.sol\":6214:6227   */\n      mload\n        /* \"RLPReader.sol\":6210:6252   */\n      div\n        /* \"RLPReader.sol\":6200:6252   */\n      swap1\n      pop\n        /* \"RLPReader.sol\":6311:6317   */\n      dup1\n        /* \"RLPReader.sol\":6304:6317   */\n      swap5\n      pop\n      pop\n      pop\n      pop\n      pop\n        /* \"RLPReader.sol\":5947:6324   */\n      swap2\n      swap1\n      pop\n      jump\t// out\n        /* \"RLPReader.sol\":5667:5941   */\n    tag_27:\n        /* \"RLPReader.sol\":5730:5737   */\n      0x00\n        /* \"RLPReader.sol\":5831:5833   */\n      0x15\n        /* \"RLPReader.sol\":5819:5823   */\n      dup3\n        /* \"RLPReader.sol\":5819:5827   */\n      0x00\n      add\n      mload\n        /* \"RLPReader.sol\":5819:5833   */\n      gt\n      iszero\n        /* \"RLPReader.sol\":5811:5896   */\n      iszero\n      iszero\n      tag_58\n      jumpi\n      mload(0x40)\n      0x08c379a000000000000000000000000000000000000000000000000000000000\n      dup2\n      mstore\n      0x04\n      add\n      dup1\n      dup1\n      0x20\n      add\n      dup3\n      dup2\n      sub\n      dup3\n      mstore\n      0x3a\n      dup2\n      mstore\n      0x20\n      add\n      dup1\n      data_3d642e759acc3b564309d12bbca615ebbc19765f84ddccc5e18a617ab1072552\n      0x3a\n      swap2\n      codecopy\n      0x40\n      add\n      swap2\n      pop\n      pop\n      mload(0x40)\n      dup1\n      swap2\n      sub\n      swap1\n      revert\n    tag_58:\n        /* \"RLPReader.sol\":5921:5933   */\n      tag_59\n        /* \"RLPReader.sol\":5928:5932   */\n      dup3\n        /* \"RLPReader.sol\":5921:5927   */\n      tag_20\n        /* \"RLPReader.sol\":5921:5933   */\n      jump\t// in\n    tag_59:\n        /* \"RLPReader.sol\":5906:5934   */\n      swap1\n      pop\n        /* \"RLPReader.sol\":5667:5941   */\n      swap2\n      swap1\n      pop\n      jump\t// out\n        /* \"RLPReader.sol\":6330:6735   */\n    tag_32:\n        /* \"RLPReader.sol\":6391:6403   */\n      0x60\n        /* \"RLPReader.sol\":6415:6426   */\n      0x00\n        /* \"RLPReader.sol\":6429:6456   */\n      tag_61\n        /* \"RLPReader.sol\":6444:6448   */\n      dup4\n        /* \"RLPReader.sol\":6444:6455   */\n      0x20\n      add\n      mload\n        /* \"RLPReader.sol\":6429:6443   */\n      tag_48\n        /* \"RLPReader.sol\":6429:6456   */\n      jump\t// in\n    tag_61:\n        /* \"RLPReader.sol\":6415:6456   */\n      swap1\n      pop\n        /* \"RLPReader.sol\":6466:6474   */\n      0x00\n        /* \"RLPReader.sol\":6488:6494   */\n      dup2\n        /* \"RLPReader.sol\":6477:6481   */\n      dup5\n        /* \"RLPReader.sol\":6477:6485   */\n      0x00\n      add\n      mload\n        /* \"RLPReader.sol\":6477:6494   */\n      sub\n        /* \"RLPReader.sol\":6466:6494   */\n      swap1\n      pop\n        /* \"RLPReader.sol\":6527:6546   */\n      0x60\n        /* \"RLPReader.sol\":6559:6562   */\n      dup2\n        /* \"RLPReader.sol\":6549:6563   */\n      mload(0x40)\n      swap1\n      dup1\n      dup3\n      mstore\n      dup1\n      0x1f\n      add\n      not(0x1f)\n      and\n      0x20\n      add\n      dup3\n      add\n      0x40\n      mstore\n      dup1\n      iszero\n      tag_62\n      jumpi\n      dup2\n      0x20\n      add\n        /* \"--CODEGEN--\":29:30   */\n      0x01\n        /* \"--CODEGEN--\":21:27   */\n      dup3\n        /* \"--CODEGEN--\":17:31   */\n      mul\n        /* \"--CODEGEN--\":116:120   */\n      dup1\n        /* \"--CODEGEN--\":104:114   */\n      codesize\n        /* \"--CODEGEN--\":96:102   */\n      dup4\n        /* \"--CODEGEN--\":87:121   */\n      codecopy\n        /* \"--CODEGEN--\":147:151   */\n      dup1\n        /* \"--CODEGEN--\":139:145   */\n      dup3\n        /* \"--CODEGEN--\":135:152   */\n      add\n        /* \"--CODEGEN--\":125:152   */\n      swap2\n      pop\n        /* \"--CODEGEN--\":0:156   */\n      pop\n        /* \"RLPReader.sol\":6549:6563   */\n      swap1\n      pop\n    tag_62:\n      pop\n        /* \"RLPReader.sol\":6527:6563   */\n      swap1\n      pop\n        /* \"RLPReader.sol\":6573:6585   */\n      0x00\n        /* \"RLPReader.sol\":6639:6645   */\n      dup2\n        /* \"RLPReader.sol\":6633:6637   */\n      0x20\n        /* \"RLPReader.sol\":6629:6646   */\n      add\n        /* \"RLPReader.sol\":6618:6646   */\n      swap1\n      pop\n        /* \"RLPReader.sol\":6665:6705   */\n      tag_63\n        /* \"RLPReader.sol\":6684:6690   */\n      dup5\n        /* \"RLPReader.sol\":6670:6674   */\n      dup8\n        /* \"RLPReader.sol\":6670:6681   */\n      0x20\n      add\n      mload\n        /* \"RLPReader.sol\":6670:6690   */\n      add\n        /* \"RLPReader.sol\":6692:6699   */\n      dup3\n        /* \"RLPReader.sol\":6701:6704   */\n      dup6\n        /* \"RLPReader.sol\":6665:6669   */\n      tag_64\n        /* \"RLPReader.sol\":6665:6705   */\n      jump\t// in\n    tag_63:\n        /* \"RLPReader.sol\":6722:6728   */\n      dup2\n        /* \"RLPReader.sol\":6715:6728   */\n      swap5\n      pop\n      pop\n      pop\n      pop\n      pop\n        /* \"RLPReader.sol\":6330:6735   */\n      swap2\n      swap1\n      pop\n      jump\t// out\n        /* \"RLPReader.sol\":2373:2660   */\n    tag_39:\n        /* \"RLPReader.sol\":2433:2437   */\n      0x00\n        /* \"RLPReader.sol\":2449:2460   */\n      dup1\n        /* \"RLPReader.sol\":2470:2481   */\n      0x00\n        /* \"RLPReader.sol\":2484:2488   */\n      dup4\n        /* \"RLPReader.sol\":2484:2495   */\n      0x20\n      add\n      mload\n        /* \"RLPReader.sol\":2470:2495   */\n      swap1\n      pop\n        /* \"RLPReader.sol\":2551:2557   */\n      dup1\n        /* \"RLPReader.sol\":2545:2558   */\n      mload\n        /* \"RLPReader.sol\":2542:2543   */\n      0x00\n        /* \"RLPReader.sol\":2537:2559   */\n      byte\n        /* \"RLPReader.sol\":2528:2559   */\n      swap2\n      pop\n        /* \"RLPReader.sol\":246:250   */\n      0xc0\n        /* \"RLPReader.sol\":2582:2606   */\n      0xff\n      and\n        /* \"RLPReader.sol\":2582:2587   */\n      dup3\n        /* \"RLPReader.sol\":2582:2606   */\n      0xff\n      and\n      lt\n        /* \"RLPReader.sol\":2578:2632   */\n      iszero\n      tag_66\n      jumpi\n        /* \"RLPReader.sol\":2627:2632   */\n      0x00\n        /* \"RLPReader.sol\":2620:2632   */\n      swap3\n      pop\n      pop\n      pop\n      jump(tag_65)\n        /* \"RLPReader.sol\":2578:2632   */\n    tag_66:\n        /* \"RLPReader.sol\":2649:2653   */\n      0x01\n        /* \"RLPReader.sol\":2642:2653   */\n      swap3\n      pop\n      pop\n      pop\n        /* \"RLPReader.sol\":2373:2660   */\n    tag_65:\n      swap2\n      swap1\n      pop\n      jump\t// out\n        /* \"RLPReader.sol\":2728:3114   */\n    tag_42:\n        /* \"RLPReader.sol\":2790:2794   */\n      0x00\n        /* \"RLPReader.sol\":2806:2816   */\n      dup1\n        /* \"RLPReader.sol\":2819:2820   */\n      0x00\n        /* \"RLPReader.sol\":2806:2820   */\n      swap1\n      pop\n        /* \"RLPReader.sol\":2830:2842   */\n      0x00\n        /* \"RLPReader.sol\":2859:2886   */\n      tag_68\n        /* \"RLPReader.sol\":2874:2878   */\n      dup5\n        /* \"RLPReader.sol\":2874:2885   */\n      0x20\n      add\n      mload\n        /* \"RLPReader.sol\":2859:2873   */\n      tag_48\n        /* \"RLPReader.sol\":2859:2886   */\n      jump\t// in\n    tag_68:\n        /* \"RLPReader.sol\":2845:2849   */\n      dup5\n        /* \"RLPReader.sol\":2845:2856   */\n      0x20\n      add\n      mload\n        /* \"RLPReader.sol\":2845:2886   */\n      add\n        /* \"RLPReader.sol\":2830:2886   */\n      swap1\n      pop\n        /* \"RLPReader.sol\":2896:2907   */\n      0x00\n        /* \"RLPReader.sol\":2924:2928   */\n      dup5\n        /* \"RLPReader.sol\":2924:2932   */\n      0x00\n      add\n      mload\n        /* \"RLPReader.sol\":2910:2914   */\n      dup6\n        /* \"RLPReader.sol\":2910:2921   */\n      0x20\n      add\n      mload\n        /* \"RLPReader.sol\":2910:2932   */\n      add\n        /* \"RLPReader.sol\":2896:2932   */\n      swap1\n      pop\n        /* \"RLPReader.sol\":2942:3086   */\n    tag_69:\n        /* \"RLPReader.sol\":2959:2965   */\n      dup1\n        /* \"RLPReader.sol\":2949:2956   */\n      dup3\n        /* \"RLPReader.sol\":2949:2965   */\n      lt\n        /* \"RLPReader.sol\":2942:3086   */\n      iszero\n      tag_70\n      jumpi\n        /* \"RLPReader.sol\":3001:3021   */\n      tag_71\n        /* \"RLPReader.sol\":3013:3020   */\n      dup3\n        /* \"RLPReader.sol\":3001:3012   */\n      tag_53\n        /* \"RLPReader.sol\":3001:3021   */\n      jump\t// in\n    tag_71:\n        /* \"RLPReader.sol\":2991:2998   */\n      dup3\n        /* \"RLPReader.sol\":2991:3021   */\n      add\n        /* \"RLPReader.sol\":2981:3021   */\n      swap2\n      pop\n        /* \"RLPReader.sol\":3068:3075   */\n      dup3\n      dup1\n      0x01\n      add\n      swap4\n      pop\n      pop\n        /* \"RLPReader.sol\":2942:3086   */\n      jump(tag_69)\n    tag_70:\n        /* \"RLPReader.sol\":3102:3107   */\n      dup3\n        /* \"RLPReader.sol\":3095:3107   */\n      swap4\n      pop\n      pop\n      pop\n      pop\n        /* \"RLPReader.sol\":2728:3114   */\n      swap2\n      swap1\n      pop\n      jump\t// out\n        /* \"RLPReader.sol\":4406:4943   */\n    tag_48:\n        /* \"RLPReader.sol\":4466:4470   */\n      0x00\n        /* \"RLPReader.sol\":4482:4492   */\n      dup1\n        /* \"RLPReader.sol\":4548:4554   */\n      dup3\n        /* \"RLPReader.sol\":4542:4555   */\n      mload\n        /* \"RLPReader.sol\":4539:4540   */\n      0x00\n        /* \"RLPReader.sol\":4534:4556   */\n      byte\n        /* \"RLPReader.sol\":4525:4556   */\n      swap1\n      pop\n        /* \"RLPReader.sol\":157:161   */\n      0x80\n        /* \"RLPReader.sol\":4579:4605   */\n      0xff\n      and\n        /* \"RLPReader.sol\":4579:4584   */\n      dup2\n        /* \"RLPReader.sol\":4579:4605   */\n      lt\n        /* \"RLPReader.sol\":4575:4936   */\n      iszero\n      tag_73\n      jumpi\n        /* \"RLPReader.sol\":4626:4627   */\n      0x00\n        /* \"RLPReader.sol\":4619:4627   */\n      swap2\n      pop\n      pop\n      jump(tag_72)\n        /* \"RLPReader.sol\":4575:4936   */\n    tag_73:\n        /* \"RLPReader.sol\":202:206   */\n      0xb8\n        /* \"RLPReader.sol\":4646:4671   */\n      0xff\n      and\n        /* \"RLPReader.sol\":4646:4651   */\n      dup2\n        /* \"RLPReader.sol\":4646:4671   */\n      lt\n        /* \"RLPReader.sol\":4646:4729   */\n      dup1\n      tag_75\n      jumpi\n      pop\n        /* \"RLPReader.sol\":246:250   */\n      0xc0\n        /* \"RLPReader.sol\":4676:4701   */\n      0xff\n      and\n        /* \"RLPReader.sol\":4676:4681   */\n      dup2\n        /* \"RLPReader.sol\":4676:4701   */\n      lt\n      iszero\n        /* \"RLPReader.sol\":4676:4728   */\n      dup1\n      iszero\n      tag_76\n      jumpi\n      pop\n        /* \"RLPReader.sol\":289:293   */\n      0xf8\n        /* \"RLPReader.sol\":4705:4728   */\n      0xff\n      and\n        /* \"RLPReader.sol\":4705:4710   */\n      dup2\n        /* \"RLPReader.sol\":4705:4728   */\n      lt\n        /* \"RLPReader.sol\":4676:4728   */\n    tag_76:\n        /* \"RLPReader.sol\":4646:4729   */\n    tag_75:\n        /* \"RLPReader.sol\":4642:4936   */\n      iszero\n      tag_77\n      jumpi\n        /* \"RLPReader.sol\":4750:4751   */\n      0x01\n        /* \"RLPReader.sol\":4743:4751   */\n      swap2\n      pop\n      pop\n      jump(tag_72)\n        /* \"RLPReader.sol\":4642:4936   */\n    tag_77:\n        /* \"RLPReader.sol\":246:250   */\n      0xc0\n        /* \"RLPReader.sol\":4770:4794   */\n      0xff\n      and\n        /* \"RLPReader.sol\":4770:4775   */\n      dup2\n        /* \"RLPReader.sol\":4770:4794   */\n      lt\n        /* \"RLPReader.sol\":4766:4936   */\n      iszero\n      tag_79\n      jumpi\n        /* \"RLPReader.sol\":4868:4869   */\n      0x01\n        /* \"RLPReader.sol\":4863:4864   */\n      dup1\n        /* \"RLPReader.sol\":202:206   */\n      0xb8\n        /* \"RLPReader.sol\":4843:4864   */\n      sub\n        /* \"RLPReader.sol\":4834:4865   */\n      0xff\n      and\n        /* \"RLPReader.sol\":4834:4839   */\n      dup3\n        /* \"RLPReader.sol\":4834:4865   */\n      sub\n        /* \"RLPReader.sol\":4834:4869   */\n      add\n        /* \"RLPReader.sol\":4827:4869   */\n      swap2\n      pop\n      pop\n      jump(tag_72)\n        /* \"RLPReader.sol\":4766:4936   */\n    tag_79:\n        /* \"RLPReader.sol\":4935:4936   */\n      0x01\n        /* \"RLPReader.sol\":4930:4931   */\n      dup1\n        /* \"RLPReader.sol\":289:293   */\n      0xf8\n        /* \"RLPReader.sol\":4912:4931   */\n      sub\n        /* \"RLPReader.sol\":4903:4932   */\n      0xff\n      and\n        /* \"RLPReader.sol\":4903:4908   */\n      dup3\n        /* \"RLPReader.sol\":4903:4932   */\n      sub\n        /* \"RLPReader.sol\":4903:4936   */\n      add\n        /* \"RLPReader.sol\":4896:4936   */\n      swap2\n      pop\n      pop\n        /* \"RLPReader.sol\":4406:4943   */\n    tag_72:\n      swap2\n      swap1\n      pop\n      jump\t// out\n        /* \"RLPReader.sol\":3162:4355   */\n    tag_53:\n        /* \"RLPReader.sol\":3219:3227   */\n      0x00\n        /* \"RLPReader.sol\":3239:3249   */\n      dup1\n        /* \"RLPReader.sol\":3305:3311   */\n      dup3\n        /* \"RLPReader.sol\":3299:3312   */\n      mload\n        /* \"RLPReader.sol\":3296:3297   */\n      0x00\n        /* \"RLPReader.sol\":3291:3313   */\n      byte\n        /* \"RLPReader.sol\":3282:3313   */\n      swap1\n      pop\n        /* \"RLPReader.sol\":157:161   */\n      0x80\n        /* \"RLPReader.sol\":3336:3362   */\n      0xff\n      and\n        /* \"RLPReader.sol\":3336:3341   */\n      dup2\n        /* \"RLPReader.sol\":3336:3362   */\n      lt\n        /* \"RLPReader.sol\":3332:4349   */\n      iszero\n      tag_82\n      jumpi\n        /* \"RLPReader.sol\":3383:3384   */\n      0x01\n        /* \"RLPReader.sol\":3376:3384   */\n      swap2\n      pop\n      pop\n      jump(tag_81)\n        /* \"RLPReader.sol\":3332:4349   */\n    tag_82:\n        /* \"RLPReader.sol\":202:206   */\n      0xb8\n        /* \"RLPReader.sol\":3403:3428   */\n      0xff\n      and\n        /* \"RLPReader.sol\":3403:3408   */\n      dup2\n        /* \"RLPReader.sol\":3403:3428   */\n      lt\n        /* \"RLPReader.sol\":3399:4349   */\n      iszero\n      tag_84\n      jumpi\n        /* \"RLPReader.sol\":3478:3479   */\n      0x01\n        /* \"RLPReader.sol\":157:161   */\n      0x80\n        /* \"RLPReader.sol\":3449:3475   */\n      0xff\n      and\n        /* \"RLPReader.sol\":3449:3454   */\n      dup3\n        /* \"RLPReader.sol\":3449:3475   */\n      sub\n        /* \"RLPReader.sol\":3449:3479   */\n      add\n        /* \"RLPReader.sol\":3442:3479   */\n      swap2\n      pop\n      pop\n      jump(tag_81)\n        /* \"RLPReader.sol\":3399:4349   */\n    tag_84:\n        /* \"RLPReader.sol\":246:250   */\n      0xc0\n        /* \"RLPReader.sol\":3498:3522   */\n      0xff\n      and\n        /* \"RLPReader.sol\":3498:3503   */\n      dup2\n        /* \"RLPReader.sol\":3498:3522   */\n      lt\n        /* \"RLPReader.sol\":3494:4349   */\n      iszero\n      tag_86\n      jumpi\n        /* \"RLPReader.sol\":3591:3595   */\n      0xb7\n        /* \"RLPReader.sol\":3584:3589   */\n      dup2\n        /* \"RLPReader.sol\":3580:3596   */\n      sub\n        /* \"RLPReader.sol\":3670:3671   */\n      0x01\n        /* \"RLPReader.sol\":3662:3668   */\n      dup5\n        /* \"RLPReader.sol\":3658:3672   */\n      add\n        /* \"RLPReader.sol\":3648:3672   */\n      swap4\n      pop\n        /* \"RLPReader.sol\":3804:3811   */\n      dup1\n        /* \"RLPReader.sol\":3800:3802   */\n      0x20\n        /* \"RLPReader.sol\":3796:3812   */\n      sub\n        /* \"RLPReader.sol\":3791:3794   */\n      0x0100\n        /* \"RLPReader.sol\":3787:3813   */\n      exp\n        /* \"RLPReader.sol\":3778:3784   */\n      dup5\n        /* \"RLPReader.sol\":3772:3785   */\n      mload\n        /* \"RLPReader.sol\":3768:3814   */\n      div\n        /* \"RLPReader.sol\":3897:3898   */\n      0x01\n        /* \"RLPReader.sol\":3888:3895   */\n      dup3\n        /* \"RLPReader.sol\":3884:3899   */\n      add\n        /* \"RLPReader.sol\":3875:3882   */\n      dup2\n        /* \"RLPReader.sol\":3871:3900   */\n      add\n        /* \"RLPReader.sol\":3864:3900   */\n      swap4\n      pop\n        /* \"RLPReader.sol\":3547:3914   */\n      pop\n      pop\n      jump(tag_87)\n    tag_86:\n        /* \"RLPReader.sol\":289:293   */\n      0xf8\n        /* \"RLPReader.sol\":3942:3965   */\n      0xff\n      and\n        /* \"RLPReader.sol\":3942:3947   */\n      dup2\n        /* \"RLPReader.sol\":3942:3965   */\n      lt\n        /* \"RLPReader.sol\":3938:4349   */\n      iszero\n      tag_88\n      jumpi\n        /* \"RLPReader.sol\":4015:4016   */\n      0x01\n        /* \"RLPReader.sol\":246:250   */\n      0xc0\n        /* \"RLPReader.sol\":3988:4012   */\n      0xff\n      and\n        /* \"RLPReader.sol\":3988:3993   */\n      dup3\n        /* \"RLPReader.sol\":3988:4012   */\n      sub\n        /* \"RLPReader.sol\":3988:4016   */\n      add\n        /* \"RLPReader.sol\":3981:4016   */\n      swap2\n      pop\n      pop\n      jump(tag_81)\n        /* \"RLPReader.sol\":3938:4349   */\n    tag_88:\n        /* \"RLPReader.sol\":4108:4112   */\n      0xf7\n        /* \"RLPReader.sol\":4101:4106   */\n      dup2\n        /* \"RLPReader.sol\":4097:4113   */\n      sub\n        /* \"RLPReader.sol\":4152:4153   */\n      0x01\n        /* \"RLPReader.sol\":4144:4150   */\n      dup5\n        /* \"RLPReader.sol\":4140:4154   */\n      add\n        /* \"RLPReader.sol\":4130:4154   */\n      swap4\n      pop\n        /* \"RLPReader.sol\":4222:4229   */\n      dup1\n        /* \"RLPReader.sol\":4218:4220   */\n      0x20\n        /* \"RLPReader.sol\":4214:4230   */\n      sub\n        /* \"RLPReader.sol\":4209:4212   */\n      0x0100\n        /* \"RLPReader.sol\":4205:4231   */\n      exp\n        /* \"RLPReader.sol\":4196:4202   */\n      dup5\n        /* \"RLPReader.sol\":4190:4203   */\n      mload\n        /* \"RLPReader.sol\":4186:4232   */\n      div\n        /* \"RLPReader.sol\":4322:4323   */\n      0x01\n        /* \"RLPReader.sol\":4313:4320   */\n      dup3\n        /* \"RLPReader.sol\":4309:4324   */\n      add\n        /* \"RLPReader.sol\":4300:4307   */\n      dup2\n        /* \"RLPReader.sol\":4296:4325   */\n      add\n        /* \"RLPReader.sol\":4289:4325   */\n      swap4\n      pop\n        /* \"RLPReader.sol\":4064:4339   */\n      pop\n      pop\n        /* \"RLPReader.sol\":3494:4349   */\n    tag_87:\n        /* \"RLPReader.sol\":3162:4355   */\n      pop\n    tag_81:\n      swap2\n      swap1\n      pop\n      jump\t// out\n        /* \"RLPReader.sol\":6888:7553   */\n    tag_64:\n        /* \"RLPReader.sol\":7004:7197   */\n    tag_91:\n        /* \"RLPReader.sol\":326:328   */\n      0x20\n        /* \"RLPReader.sol\":7011:7027   */\n      0xff\n      and\n        /* \"RLPReader.sol\":7011:7014   */\n      dup2\n        /* \"RLPReader.sol\":7011:7027   */\n      lt\n      iszero\n        /* \"RLPReader.sol\":7004:7197   */\n      iszero\n      tag_92\n      jumpi\n        /* \"RLPReader.sol\":7107:7110   */\n      dup3\n        /* \"RLPReader.sol\":7101:7111   */\n      mload\n        /* \"RLPReader.sol\":7095:7099   */\n      dup3\n        /* \"RLPReader.sol\":7088:7112   */\n      mstore\n        /* \"RLPReader.sol\":326:328   */\n      0x20\n        /* \"RLPReader.sol\":7139:7155   */\n      0xff\n      and\n      dup4\n      add\n      swap3\n      pop\n        /* \"RLPReader.sol\":326:328   */\n      0x20\n        /* \"RLPReader.sol\":7169:7186   */\n      0xff\n      and\n      dup3\n      add\n      swap2\n      pop\n        /* \"RLPReader.sol\":326:328   */\n      0x20\n        /* \"RLPReader.sol\":7029:7045   */\n      0xff\n      and\n      dup2\n      sub\n      swap1\n      pop\n        /* \"RLPReader.sol\":7004:7197   */\n      jump(tag_91)\n    tag_92:\n        /* \"RLPReader.sol\":7286:7295   */\n      0x00\n        /* \"RLPReader.sol\":7325:7326   */\n      0x01\n        /* \"RLPReader.sol\":7318:7321   */\n      dup3\n        /* \"RLPReader.sol\":326:328   */\n      0x20\n        /* \"RLPReader.sol\":7306:7321   */\n      0xff\n      and\n      sub\n        /* \"RLPReader.sol\":7298:7301   */\n      0x0100\n        /* \"RLPReader.sol\":7298:7322   */\n      exp\n        /* \"RLPReader.sol\":7298:7326   */\n      sub\n        /* \"RLPReader.sol\":7286:7326   */\n      swap1\n      pop\n        /* \"RLPReader.sol\":7394:7398   */\n      dup1\n        /* \"RLPReader.sol\":7390:7399   */\n      not\n        /* \"RLPReader.sol\":7384:7387   */\n      dup5\n        /* \"RLPReader.sol\":7378:7388   */\n      mload\n        /* \"RLPReader.sol\":7374:7400   */\n      and\n        /* \"RLPReader.sol\":7462:7466   */\n      dup2\n        /* \"RLPReader.sol\":7455:7459   */\n      dup5\n        /* \"RLPReader.sol\":7449:7460   */\n      mload\n        /* \"RLPReader.sol\":7445:7467   */\n      and\n        /* \"RLPReader.sol\":7528:7535   */\n      dup2\n        /* \"RLPReader.sol\":7518:7526   */\n      dup2\n        /* \"RLPReader.sol\":7515:7536   */\n      or\n        /* \"RLPReader.sol\":7509:7513   */\n      dup6\n        /* \"RLPReader.sol\":7502:7537   */\n      mstore\n        /* \"RLPReader.sol\":7345:7547   */\n      pop\n      pop\n      pop\n      pop\n      pop\n      pop\n      jump\t// out\n        /* \"RLPReader.sol\":96:7555   */\n    tag_34:\n      0x40\n      dup1\n      mload\n      swap1\n      dup2\n      add\n      0x40\n      mstore\n      dup1\n      0x00\n      dup2\n      mstore\n      0x20\n      add\n      0x00\n      dup2\n      mstore\n      pop\n      swap1\n      jump\t// out\n    tag_46:\n      0x40\n      dup1\n      mload\n      swap1\n      dup2\n      add\n      0x40\n      mstore\n      dup1\n      0x00\n      dup2\n      mstore\n      0x20\n      add\n      0x00\n      dup2\n      mstore\n      pop\n      swap1\n      jump\t// out\n    stop\n    data_3d642e759acc3b564309d12bbca615ebbc19765f84ddccc5e18a617ab1072552 496e76616c696420524c504974656d2e204164647265737365732061726520656e636f64656420696e203230206279746573206f72206c657373\n\n    auxdata: 0xa165627a7a72305820eaa94e46e93344af215f803ac91ba8f22efde7116f093730f97ab81578ea583a0029\n}\n",
    "bytecode": {
      "linkReferences": {},
      "object": "610865610030600b82828239805160001a6073146000811461002057610022565bfe5b5030600052607381538281f3fe7300000000000000000000000000000000000000003014608060405260043610610052576000357c010000000000000000000000000000000000000000000000000000000090048063781cebc114610057575b600080fd5b6101106004803603602081101561006d57600080fd5b810190808035906020019064010000000081111561008a57600080fd5b82018360208201111561009c57600080fd5b803590602001918460018302840111640100000000831117156100be57600080fd5b91908080601f016020809104026020016040519081016040528093929190818152602001838380828437600081840152601f19601f8201169050808301925050505050505091929192905050506101da565b604051808781526020018681526020018581526020018473ffffffffffffffffffffffffffffffffffffffff1673ffffffffffffffffffffffffffffffffffffffff16815260200183815260200180602001828103825283818151815260200191508051906020019080838360005b8381101561019a57808201518184015260208101905061017f565b50505050905090810190601f1680156101c75780820380516001836020036101000a031916815260200191505b5097505050505050505060405180910390f35b60008060008060006060806101f66101f1896102d4565b61032b565b905061021981600081518110151561020a57fe5b90602001906020020151610471565b61023a82600181518110151561022b57fe5b90602001906020020151610471565b61025b83600281518110151561024c57fe5b90602001906020020151610471565b61027c84600381518110151561026d57fe5b906020019060200201516104b4565b61029d85600481518110151561028e57fe5b90602001906020020151610471565b6102be8660058151811015156102af57fe5b90602001906020020151610526565b9650965096509650965096505091939550919395565b6102dc6107cb565b6000825114156103045760408051908101604052806000815260200160008152509050610326565b6000602083019050604080519081016040528084518152602001828152509150505b919050565b6060610336826105a1565b15156103aa576040517f08c379a000000000000000000000000000000000000000000000000000000000815260040180806020018281038252600d8152602001807f69734c697374206661696c65640000000000000000000000000000000000000081525060200191505060405180910390fd5b60006103b5836105da565b9050806040519080825280602002602001820160405280156103f157816020015b6103de6107e5565b8152602001906001900390816103d65790505b50915060006104038460200151610635565b8460200151019050600080600090505b8381101561046857610424836106be565b9150604080519081016040528083815260200184815250858281518110151561044957fe5b9060200190602002018190525081830192508080600101915050610413565b50505050919050565b6000806104818360200151610635565b9050600081846000015103905060008285602001510190506000826020036101000a825104905080945050505050919050565b60006015826000015111151515610516576040517f08c379a000000000000000000000000000000000000000000000000000000000815260040180806020018281038252603a815260200180610800603a913960400191505060405180910390fd5b61051f82610471565b9050919050565b606060006105378360200151610635565b905060008184600001510390506060816040519080825280601f01601f1916602001820160405280156105795781602001600182028038833980820191505090505b5090506000816020019050610595848760200151018285610771565b81945050505050919050565b600080600083602001519050805160001a915060c060ff168260ff1610156105ce576000925050506105d5565b6001925050505b919050565b6000806000905060006105f08460200151610635565b84602001510190506000846000015185602001510190505b8082101561062a57610619826106be565b820191508280600101935050610608565b829350505050919050565b600080825160001a9050608060ff168110156106555760009150506106b9565b60b860ff1681108061067a575060c060ff168110158015610679575060f860ff1681105b5b156106895760019150506106b9565b60c060ff168110156106a95760018060b80360ff168203019150506106b9565b60018060f80360ff168203019150505b919050565b600080825160001a9050608060ff168110156106de57600191505061076c565b60b860ff168110156106fc576001608060ff1682030191505061076c565b60c060ff1681101561072c5760b78103600184019350806020036101000a8451046001820181019350505061076a565b60f860ff1681101561074a57600160c060ff1682030191505061076c565b60f78103600184019350806020036101000a845104600182018101935050505b505b919050565b5b602060ff16811015156107a35782518252602060ff1683019250602060ff1682019150602060ff1681039050610772565b6000600182602060ff16036101000a0390508019845116818451168181178552505050505050565b604080519081016040528060008152602001600081525090565b60408051908101604052806000815260200160008152509056fe496e76616c696420524c504974656d2e204164647265737365732061726520656e636f64656420696e203230206279746573206f72206c657373a165627a7a72305820eaa94e46e93344af215f803ac91ba8f22efde7116f093730f97ab81578ea583a0029",
      "opcodes": "PUSH2 0x865 PUSH2 0x30 PUSH1 0xB DUP3 DUP3 DUP3 CODECOPY DUP1 MLOAD PUSH1 0x0 BYTE PUSH1 0x73 EQ PUSH1 0x0 DUP2 EQ PUSH2 0x20 JUMPI PUSH2 0x22 JUMP JUMPDEST INVALID JUMPDEST POP ADDRESS PUSH1 0x0 MSTORE PUSH1 0x73 DUP2 MSTORE8 DUP3 DUP2 RETURN INVALID PUSH20 0x0 ADDRESS EQ PUSH1 0x80 PUSH1 0x40 MSTORE PUSH1 0x4 CALLDATASIZE LT PUSH2 0x52 JUMPI PUSH1 0x0 CALLDATALOAD PUSH29 0x100000000000000000000000000000000000000000000000000000000 SWAP1 DIV DUP1 PUSH4 0x781CEBC1 EQ PUSH2 0x57 JUMPI JUMPDEST PUSH1 0x0 DUP1 REVERT JUMPDEST PUSH2 0x110 PUSH1 0x4 DUP1 CALLDATASIZE SUB PUSH1 0x20 DUP2 LT ISZERO PUSH2 0x6D JUMPI PUSH1 0x0 DUP1 REVERT JUMPDEST DUP2 ADD SWAP1 DUP1 DUP1 CALLDATALOAD SWAP1 PUSH1 0x20 ADD SWAP1 PUSH5 0x100000000 DUP2 GT ISZERO PUSH2 0x8A JUMPI PUSH1 0x0 DUP1 REVERT JUMPDEST DUP3 ADD DUP4 PUSH1 0x20 DUP3 ADD GT ISZERO PUSH2 0x9C JUMPI PUSH1 0x0 DUP1 REVERT JUMPDEST DUP1 CALLDATALOAD SWAP1 PUSH1 0x20 ADD SWAP2 DUP5 PUSH1 0x1 DUP4 MUL DUP5 ADD GT PUSH5 0x100000000 DUP4 GT OR ISZERO PUSH2 0xBE JUMPI PUSH1 0x0 DUP1 REVERT JUMPDEST SWAP2 SWAP1 DUP1 DUP1 PUSH1 0x1F ADD PUSH1 0x20 DUP1 SWAP2 DIV MUL PUSH1 0x20 ADD PUSH1 0x40 MLOAD SWAP1 DUP2 ADD PUSH1 0x40 MSTORE DUP1 SWAP4 SWAP3 SWAP2 SWAP1 DUP2 DUP2 MSTORE PUSH1 0x20 ADD DUP4 DUP4 DUP1 DUP3 DUP5 CALLDATACOPY PUSH1 0x0 DUP2 DUP5 ADD MSTORE PUSH1 0x1F NOT PUSH1 0x1F DUP3 ADD AND SWAP1 POP DUP1 DUP4 ADD SWAP3 POP POP POP POP POP POP POP SWAP2 SWAP3 SWAP2 SWAP3 SWAP1 POP POP POP PUSH2 0x1DA JUMP JUMPDEST PUSH1 0x40 MLOAD DUP1 DUP8 DUP2 MSTORE PUSH1 0x20 ADD DUP7 DUP2 MSTORE PUSH1 0x20 ADD DUP6 DUP2 MSTORE PUSH1 0x20 ADD DUP5 PUSH20 0xFFFFFFFFFFFFFFFFFFFFFFFFFFFFFFFFFFFFFFFF AND PUSH20 0xFFFFFFFFFFFFFFFFFFFFFFFFFFFFFFFFFFFFFFFF AND DUP2 MSTORE PUSH1 0x20 ADD DUP4 DUP2 MSTORE PUSH1 0x20 ADD DUP1 PUSH1 0x20 ADD DUP3 DUP2 SUB DUP3 MSTORE DUP4 DUP2 DUP2 MLOAD DUP2 MSTORE PUSH1 0x20 ADD SWAP2 POP DUP1 MLOAD SWAP1 PUSH1 0x20 ADD SWAP1 DUP1 DUP4 DUP4 PUSH1 0x0 JUMPDEST DUP4 DUP2 LT ISZERO PUSH2 0x19A JUMPI DUP1 DUP3 ADD MLOAD DUP2 DUP5 ADD MSTORE PUSH1 0x20 DUP2 ADD SWAP1 POP PUSH2 0x17F JUMP JUMPDEST POP POP POP POP SWAP1 POP SWAP1 DUP2 ADD SWAP1 PUSH1 0x1F AND DUP1 ISZERO PUSH2 0x1C7 JUMPI DUP1 DUP3 SUB DUP1 MLOAD PUSH1 0x1 DUP4 PUSH1 0x20 SUB PUSH2 0x100 EXP SUB NOT AND DUP2 MSTORE PUSH1 0x20 ADD SWAP2 POP JUMPDEST POP SWAP8 POP POP POP POP POP POP POP POP PUSH1 0x40 MLOAD DUP1 SWAP2 SUB SWAP1 RETURN JUMPDEST PUSH1 0x0 DUP1 PUSH1 0x0 DUP1 PUSH1 0x0 PUSH1 0x60 DUP1 PUSH2 0x1F6 PUSH2 0x1F1 DUP10 PUSH2 0x2D4 JUMP JUMPDEST PUSH2 0x32B JUMP JUMPDEST SWAP1 POP PUSH2 0x219 DUP2 PUSH1 0x0 DUP2 MLOAD DUP2 LT ISZERO ISZERO PUSH2 0x20A JUMPI INVALID JUMPDEST SWAP1 PUSH1 0x20 ADD SWAP1 PUSH1 0x20 MUL ADD MLOAD PUSH2 0x471 JUMP JUMPDEST PUSH2 0x23A DUP3 PUSH1 0x1 DUP2 MLOAD DUP2 LT ISZERO ISZERO PUSH2 0x22B JUMPI INVALID JUMPDEST SWAP1 PUSH1 0x20 ADD SWAP1 PUSH1 0x20 MUL ADD MLOAD PUSH2 0x471 JUMP JUMPDEST PUSH2 0x25B DUP4 PUSH1 0x2 DUP2 MLOAD DUP2 LT ISZERO ISZERO PUSH2 0x24C JUMPI INVALID JUMPDEST SWAP1 PUSH1 0x20 ADD SWAP1 PUSH1 0x20 MUL ADD MLOAD PUSH2 0x471 JUMP JUMPDEST PUSH2 0x27C DUP5 PUSH1 0x3 DUP2 MLOAD DUP2 LT ISZERO ISZERO PUSH2 0x26D JUMPI INVALID JUMPDEST SWAP1 PUSH1 0x20 ADD SWAP1 PUSH1 0x20 MUL ADD MLOAD PUSH2 0x4B4 JUMP JUMPDEST PUSH2 0x29D DUP6 PUSH1 0x4 DUP2 MLOAD DUP2 LT ISZERO ISZERO PUSH2 0x28E JUMPI INVALID JUMPDEST SWAP1 PUSH1 0x20 ADD SWAP1 PUSH1 0x20 MUL ADD MLOAD PUSH2 0x471 JUMP JUMPDEST PUSH2 0x2BE DUP7 PUSH1 0x5 DUP2 MLOAD DUP2 LT ISZERO ISZERO PUSH2 0x2AF JUMPI INVALID JUMPDEST SWAP1 PUSH1 0x20 ADD SWAP1 PUSH1 0x20 MUL ADD MLOAD PUSH2 0x526 JUMP JUMPDEST SWAP7 POP SWAP7 POP SWAP7 POP SWAP7 POP SWAP7 POP SWAP7 POP POP SWAP2 SWAP4 SWAP6 POP SWAP2 SWAP4 SWAP6 JUMP JUMPDEST PUSH2 0x2DC PUSH2 0x7CB JUMP JUMPDEST PUSH1 0x0 DUP3 MLOAD EQ ISZERO PUSH2 0x304 JUMPI PUSH1 0x40 DUP1 MLOAD SWAP1 DUP2 ADD PUSH1 0x40 MSTORE DUP1 PUSH1 0x0 DUP2 MSTORE PUSH1 0x20 ADD PUSH1 0x0 DUP2 MSTORE POP SWAP1 POP PUSH2 0x326 JUMP JUMPDEST PUSH1 0x0 PUSH1 0x20 DUP4 ADD SWAP1 POP PUSH1 0x40 DUP1 MLOAD SWAP1 DUP2 ADD PUSH1 0x40 MSTORE DUP1 DUP5 MLOAD DUP2 MSTORE PUSH1 0x20 ADD DUP3 DUP2 MSTORE POP SWAP2 POP POP JUMPDEST SWAP2 SWAP1 POP JUMP JUMPDEST PUSH1 0x60 PUSH2 0x336 DUP3 PUSH2 0x5A1 JUMP JUMPDEST ISZERO ISZERO PUSH2 0x3AA JUMPI PUSH1 0x40 MLOAD PUSH32 0x8C379A000000000000000000000000000000000000000000000000000000000 DUP2 MSTORE PUSH1 0x4 ADD DUP1 DUP1 PUSH1 0x20 ADD DUP3 DUP2 SUB DUP3 MSTORE PUSH1 0xD DUP2 MSTORE PUSH1 0x20 ADD DUP1 PUSH32 0x69734C697374206661696C656400000000000000000000000000000000000000 DUP2 MSTORE POP PUSH1 0x20 ADD SWAP2 POP POP PUSH1 0x40 MLOAD DUP1 SWAP2 SUB SWAP1 REVERT JUMPDEST PUSH1 0x0 PUSH2 0x3B5 DUP4 PUSH2 0x5DA JUMP JUMPDEST SWAP1 POP DUP1 PUSH1 0x40 MLOAD SWAP1 DUP1 DUP3 MSTORE DUP1 PUSH1 0x20 MUL PUSH1 0x20 ADD DUP3 ADD PUSH1 0x40 MSTORE DUP1 ISZERO PUSH2 0x3F1 JUMPI DUP2 PUSH1 0x20 ADD JUMPDEST PUSH2 0x3DE PUSH2 0x7E5 JUMP JUMPDEST DUP2 MSTORE PUSH1 0x20 ADD SWAP1 PUSH1 0x1 SWAP1 SUB SWAP1 DUP2 PUSH2 0x3D6 JUMPI SWAP1 POP JUMPDEST POP SWAP2 POP PUSH1 0x0 PUSH2 0x403 DUP5 PUSH1 0x20 ADD MLOAD PUSH2 0x635 JUMP JUMPDEST DUP5 PUSH1 0x20 ADD MLOAD ADD SWAP1 POP PUSH1 0x0 DUP1 PUSH1 0x0 SWAP1 POP JUMPDEST DUP4 DUP2 LT ISZERO PUSH2 0x468 JUMPI PUSH2 0x424 DUP4 PUSH2 0x6BE JUMP JUMPDEST SWAP2 POP PUSH1 0x40 DUP1 MLOAD SWAP1 DUP2 ADD PUSH1 0x40 MSTORE DUP1 DUP4 DUP2 MSTORE PUSH1 0x20 ADD DUP5 DUP2 MSTORE POP DUP6 DUP3 DUP2 MLOAD DUP2 LT ISZERO ISZERO PUSH2 0x449 JUMPI INVALID JUMPDEST SWAP1 PUSH1 0x20 ADD SWAP1 PUSH1 0x20 MUL ADD DUP2 SWAP1 MSTORE POP DUP2 DUP4 ADD SWAP3 POP DUP1 DUP1 PUSH1 0x1 ADD SWAP2 POP POP PUSH2 0x413 JUMP JUMPDEST POP POP POP POP SWAP2 SWAP1 POP JUMP JUMPDEST PUSH1 0x0 DUP1 PUSH2 0x481 DUP4 PUSH1 0x20 ADD MLOAD PUSH2 0x635 JUMP JUMPDEST SWAP1 POP PUSH1 0x0 DUP2 DUP5 PUSH1 0x0 ADD MLOAD SUB SWAP1 POP PUSH1 0x0 DUP3 DUP6 PUSH1 0x20 ADD MLOAD ADD SWAP1 POP PUSH1 0x0 DUP3 PUSH1 0x20 SUB PUSH2 0x100 EXP DUP3 MLOAD DIV SWAP1 POP DUP1 SWAP5 POP POP POP POP POP SWAP2 SWAP1 POP JUMP JUMPDEST PUSH1 0x0 PUSH1 0x15 DUP3 PUSH1 0x0 ADD MLOAD GT ISZERO ISZERO ISZERO PUSH2 0x516 JUMPI PUSH1 0x40 MLOAD PUSH32 0x8C379A000000000000000000000000000000000000000000000000000000000 DUP2 MSTORE PUSH1 0x4 ADD DUP1 DUP1 PUSH1 0x20 ADD DUP3 DUP2 SUB DUP3 MSTORE PUSH1 0x3A DUP2 MSTORE PUSH1 0x20 ADD DUP1 PUSH2 0x800 PUSH1 0x3A SWAP2 CODECOPY PUSH1 0x40 ADD SWAP2 POP POP PUSH1 0x40 MLOAD DUP1 SWAP2 SUB SWAP1 REVERT JUMPDEST PUSH2 0x51F DUP3 PUSH2 0x471 JUMP JUMPDEST SWAP1 POP SWAP2 SWAP1 POP JUMP JUMPDEST PUSH1 0x60 PUSH1 0x0 PUSH2 0x537 DUP4 PUSH1 0x20 ADD MLOAD PUSH2 0x635 JUMP JUMPDEST SWAP1 POP PUSH1 0x0 DUP2 DUP5 PUSH1 0x0 ADD MLOAD SUB SWAP1 POP PUSH1 0x60 DUP2 PUSH1 0x40 MLOAD SWAP1 DUP1 DUP3 MSTORE DUP1 PUSH1 0x1F ADD PUSH1 0x1F NOT AND PUSH1 0x20 ADD DUP3 ADD PUSH1 0x40 MSTORE DUP1 ISZERO PUSH2 0x579 JUMPI DUP2 PUSH1 0x20 ADD PUSH1 0x1 DUP3 MUL DUP1 CODESIZE DUP4 CODECOPY DUP1 DUP3 ADD SWAP2 POP POP SWAP1 POP JUMPDEST POP SWAP1 POP PUSH1 0x0 DUP2 PUSH1 0x20 ADD SWAP1 POP PUSH2 0x595 DUP5 DUP8 PUSH1 0x20 ADD MLOAD ADD DUP3 DUP6 PUSH2 0x771 JUMP JUMPDEST DUP2 SWAP5 POP POP POP POP POP SWAP2 SWAP1 POP JUMP JUMPDEST PUSH1 0x0 DUP1 PUSH1 0x0 DUP4 PUSH1 0x20 ADD MLOAD SWAP1 POP DUP1 MLOAD PUSH1 0x0 BYTE SWAP2 POP PUSH1 0xC0 PUSH1 0xFF AND DUP3 PUSH1 0xFF AND LT ISZERO PUSH2 0x5CE JUMPI PUSH1 0x0 SWAP3 POP POP POP PUSH2 0x5D5 JUMP JUMPDEST PUSH1 0x1 SWAP3 POP POP POP JUMPDEST SWAP2 SWAP1 POP JUMP JUMPDEST PUSH1 0x0 DUP1 PUSH1 0x0 SWAP1 POP PUSH1 0x0 PUSH2 0x5F0 DUP5 PUSH1 0x20 ADD MLOAD PUSH2 0x635 JUMP JUMPDEST DUP5 PUSH1 0x20 ADD MLOAD ADD SWAP1 POP PUSH1 0x0 DUP5 PUSH1 0x0 ADD MLOAD DUP6 PUSH1 0x20 ADD MLOAD ADD SWAP1 POP JUMPDEST DUP1 DUP3 LT ISZERO PUSH2 0x62A JUMPI PUSH2 0x619 DUP3 PUSH2 0x6BE JUMP JUMPDEST DUP3 ADD SWAP2 POP DUP3 DUP1 PUSH1 0x1 ADD SWAP4 POP POP PUSH2 0x608 JUMP JUMPDEST DUP3 SWAP4 POP POP POP POP SWAP2 SWAP1 POP JUMP JUMPDEST PUSH1 0x0 DUP1 DUP3 MLOAD PUSH1 0x0 BYTE SWAP1 POP PUSH1 0x80 PUSH1 0xFF AND DUP2 LT ISZERO PUSH2 0x655 JUMPI PUSH1 0x0 SWAP2 POP POP PUSH2 0x6B9 JUMP JUMPDEST PUSH1 0xB8 PUSH1 0xFF AND DUP2 LT DUP1 PUSH2 0x67A JUMPI POP PUSH1 0xC0 PUSH1 0xFF AND DUP2 LT ISZERO DUP1 ISZERO PUSH2 0x679 JUMPI POP PUSH1 0xF8 PUSH1 0xFF AND DUP2 LT JUMPDEST JUMPDEST ISZERO PUSH2 0x689 JUMPI PUSH1 0x1 SWAP2 POP POP PUSH2 0x6B9 JUMP JUMPDEST PUSH1 0xC0 PUSH1 0xFF AND DUP2 LT ISZERO PUSH2 0x6A9 JUMPI PUSH1 0x1 DUP1 PUSH1 0xB8 SUB PUSH1 0xFF AND DUP3 SUB ADD SWAP2 POP POP PUSH2 0x6B9 JUMP JUMPDEST PUSH1 0x1 DUP1 PUSH1 0xF8 SUB PUSH1 0xFF AND DUP3 SUB ADD SWAP2 POP POP JUMPDEST SWAP2 SWAP1 POP JUMP JUMPDEST PUSH1 0x0 DUP1 DUP3 MLOAD PUSH1 0x0 BYTE SWAP1 POP PUSH1 0x80 PUSH1 0xFF AND DUP2 LT ISZERO PUSH2 0x6DE JUMPI PUSH1 0x1 SWAP2 POP POP PUSH2 0x76C JUMP JUMPDEST PUSH1 0xB8 PUSH1 0xFF AND DUP2 LT ISZERO PUSH2 0x6FC JUMPI PUSH1 0x1 PUSH1 0x80 PUSH1 0xFF AND DUP3 SUB ADD SWAP2 POP POP PUSH2 0x76C JUMP JUMPDEST PUSH1 0xC0 PUSH1 0xFF AND DUP2 LT ISZERO PUSH2 0x72C JUMPI PUSH1 0xB7 DUP2 SUB PUSH1 0x1 DUP5 ADD SWAP4 POP DUP1 PUSH1 0x20 SUB PUSH2 0x100 EXP DUP5 MLOAD DIV PUSH1 0x1 DUP3 ADD DUP2 ADD SWAP4 POP POP POP PUSH2 0x76A JUMP JUMPDEST PUSH1 0xF8 PUSH1 0xFF AND DUP2 LT ISZERO PUSH2 0x74A JUMPI PUSH1 0x1 PUSH1 0xC0 PUSH1 0xFF AND DUP3 SUB ADD SWAP2 POP POP PUSH2 0x76C JUMP JUMPDEST PUSH1 0xF7 DUP2 SUB PUSH1 0x1 DUP5 ADD SWAP4 POP DUP1 PUSH1 0x20 SUB PUSH2 0x100 EXP DUP5 MLOAD DIV PUSH1 0x1 DUP3 ADD DUP2 ADD SWAP4 POP POP POP JUMPDEST POP JUMPDEST SWAP2 SWAP1 POP JUMP JUMPDEST JUMPDEST PUSH1 0x20 PUSH1 0xFF AND DUP2 LT ISZERO ISZERO PUSH2 0x7A3 JUMPI DUP3 MLOAD DUP3 MSTORE PUSH1 0x20 PUSH1 0xFF AND DUP4 ADD SWAP3 POP PUSH1 0x20 PUSH1 0xFF AND DUP3 ADD SWAP2 POP PUSH1 0x20 PUSH1 0xFF AND DUP2 SUB SWAP1 POP PUSH2 0x772 JUMP JUMPDEST PUSH1 0x0 PUSH1 0x1 DUP3 PUSH1 0x20 PUSH1 0xFF AND SUB PUSH2 0x100 EXP SUB SWAP1 POP DUP1 NOT DUP5 MLOAD AND DUP2 DUP5 MLOAD AND DUP2 DUP2 OR DUP6 MSTORE POP POP POP POP POP POP JUMP JUMPDEST PUSH1 0x40 DUP1 MLOAD SWAP1 DUP2 ADD PUSH1 0x40 MSTORE DUP1 PUSH1 0x0 DUP2 MSTORE PUSH1 0x20 ADD PUSH1 0x0 DUP2 MSTORE POP SWAP1 JUMP JUMPDEST PUSH1 0x40 DUP1 MLOAD SWAP1 DUP2 ADD PUSH1 0x40 MSTORE DUP1 PUSH1 0x0 DUP2 MSTORE PUSH1 0x20 ADD PUSH1 0x0 DUP2 MSTORE POP SWAP1 JUMP INVALID 0x49 PUSH15 0x76616C696420524C504974656D2E20 COINBASE PUSH5 0x6472657373 PUSH6 0x732061726520 PUSH6 0x6E636F646564 KECCAK256 PUSH10 0x6E203230206279746573 KECCAK256 PUSH16 0x72206C657373A165627A7A72305820EA 0xa9 0x4e 0x46 0xe9 CALLER DIFFICULTY 0xaf 0x21 0x5f DUP1 GASPRICE 0xc9 SHL 0xa8 CALLCODE 0x2e REVERT 0xe7 GT PUSH16 0x93730F97AB81578EA583A0029000000 "
    },
    "gasEstimates": {
      "creation": {
        "codeDepositCost": "429800",
        "executionCost": "515",
        "totalCost": "430315"
      },
      "external": {
        "decode_transaction(bytes)": "infinite"
      },
      "internal": {
        "_itemLength(uint256)": "infinite",
        "_payloadOffset(uint256)": "infinite",
        "bytesToBytes32(bytes memory,uint256)": "infinite",
        "copy(uint256,uint256,uint256)": "infinite",
        "isList(struct RLPReader.RLPItem memory)": "infinite",
        "numItems(struct RLPReader.RLPItem memory)": "infinite",
        "toAddress(struct RLPReader.RLPItem memory)": "infinite",
        "toBoolean(struct RLPReader.RLPItem memory)": "infinite",
        "toBytes(struct RLPReader.RLPItem memory)": "infinite",
        "toList(struct RLPReader.RLPItem memory)": "infinite",
        "toRlpBytes(struct RLPReader.RLPItem memory)": "infinite",
        "toRlpItem(bytes memory)": "infinite",
        "toUint(struct RLPReader.RLPItem memory)": "infinite"
      }
    },
    "methodIdentifiers": {
      "decode_transaction(bytes)": "781cebc1"
    }
  },
  "userdoc": {
    "methods": {}
  }
}