{
  "contractName": "RecipientUtils",
  "abi": [
    {
      "constant": true,
      "inputs": [
        {
          "name": "methodSig",
          "type": "string"
        }
      ],
      "name": "sig",
      "outputs": [
        {
          "name": "",
          "type": "bytes4"
        }
      ],
      "payable": false,
      "stateMutability": "pure",
      "type": "function"
    },
    {
      "constant": true,
      "inputs": [
        {
          "name": "msg_data",
          "type": "bytes"
        }
      ],
      "name": "getMethodSig",
      "outputs": [
        {
          "name": "",
          "type": "bytes4"
        }
      ],
      "payable": false,
      "stateMutability": "pure",
      "type": "function"
    },
    {
      "constant": true,
      "inputs": [
        {
          "name": "msg_data",
          "type": "bytes"
        },
        {
          "name": "index",
          "type": "uint256"
        }
      ],
      "name": "getParam",
      "outputs": [
        {
          "name": "",
          "type": "uint256"
        }
      ],
      "payable": false,
      "stateMutability": "pure",
      "type": "function"
    },
    {
      "constant": true,
      "inputs": [
        {
          "name": "msg_data",
          "type": "bytes"
        },
        {
          "name": "index",
          "type": "uint256"
        }
      ],
      "name": "getBytesParam",
      "outputs": [
        {
          "name": "ret",
          "type": "bytes"
        }
      ],
      "payable": false,
      "stateMutability": "pure",
      "type": "function"
    },
    {
      "constant": true,
      "inputs": [
        {
          "name": "msg_data",
          "type": "bytes"
        },
        {
          "name": "index",
          "type": "uint256"
        }
      ],
      "name": "getStringParam",
      "outputs": [
        {
          "name": "",
          "type": "string"
        }
      ],
      "payable": false,
      "stateMutability": "pure",
      "type": "function"
    },
    {
      "constant": true,
      "inputs": [
        {
          "name": "source",
          "type": "bytes"
        },
        {
          "name": "ofs",
          "type": "uint256"
        }
      ],
      "name": "extractUint",
      "outputs": [
        {
          "name": "result",
          "type": "uint256"
        }
      ],
      "payable": false,
      "stateMutability": "pure",
      "type": "function"
    },
    {
      "constant": true,
      "inputs": [
        {
          "name": "source",
          "type": "bytes"
        },
        {
          "name": "ofs",
          "type": "uint256"
        },
        {
          "name": "len",
          "type": "uint256"
        }
      ],
      "name": "extractBytes",
      "outputs": [
        {
          "name": "ret",
          "type": "bytes"
        }
      ],
      "payable": false,
      "stateMutability": "pure",
      "type": "function"
    }
  ],
  "bytecode": "0x608060405234801561001057600080fd5b50610aae806100206000396000f3fe608060405260043610610083576000357c0100000000000000000000000000000000000000000000000000000000900463ffffffff1680634b80821514610088578063823e0669146101a25780638a173e3a14610288578063993c3b2c146103a2578063b046e4b4146104f7578063c60d756e14610642578063d1d3a76514610728575b600080fd5b34801561009457600080fd5b5061014e600480360360208110156100ab57600080fd5b81019080803590602001906401000000008111156100c857600080fd5b8201836020820111156100da57600080fd5b803590602001918460018302840111640100000000831117156100fc57600080fd5b91908080601f016020809104026020016040519081016040528093929190818152602001838380828437600081840152601f19601f820116905080830192505050505050509192919290505050610873565b60405180827bffffffffffffffffffffffffffffffffffffffffffffffffffffffff19167bffffffffffffffffffffffffffffffffffffffffffffffffffffffff1916815260200191505060405180910390f35b3480156101ae57600080fd5b50610272600480360360408110156101c557600080fd5b81019080803590602001906401000000008111156101e257600080fd5b8201836020820111156101f457600080fd5b8035906020019184600183028401116401000000008311171561021657600080fd5b91908080601f016020809104026020016040519081016040528093929190818152602001838380828437600081840152601f19601f82011690508083019250505050505050919291929080359060200190929190505050610884565b6040518082815260200191505060405180910390f35b34801561029457600080fd5b5061034e600480360360208110156102ab57600080fd5b81019080803590602001906401000000008111156102c857600080fd5b8201836020820111156102da57600080fd5b803590602001918460018302840111640100000000831117156102fc57600080fd5b91908080601f016020809104026020016040519081016040528093929190818152602001838380828437600081840152601f19601f820116905080830192505050505050509192919290505050610895565b60405180827bffffffffffffffffffffffffffffffffffffffffffffffffffffffff19167bffffffffffffffffffffffffffffffffffffffffffffffffffffffff1916815260200191505060405180910390f35b3480156103ae57600080fd5b5061047c600480360360608110156103c557600080fd5b81019080803590602001906401000000008111156103e257600080fd5b8201836020820111156103f457600080fd5b8035906020019184600183028401116401000000008311171561041657600080fd5b91908080601f016020809104026020016040519081016040528093929190818152602001838380828437600081840152601f19601f82011690508083019250505050505050919291929080359060200190929190803590602001909291905050506108ac565b6040518080602001828103825283818151815260200191508051906020019080838360005b838110156104bc5780820151818401526020810190506104a1565b50505050905090810190601f1680156104e95780820380516001836020036101000a031916815260200191505b509250505060405180910390f35b34801561050357600080fd5b506105c76004803603604081101561051a57600080fd5b810190808035906020019064010000000081111561053757600080fd5b82018360208201111561054957600080fd5b8035906020019184600183028401116401000000008311171561056b57600080fd5b91908080601f016020809104026020016040519081016040528093929190818152602001838380828437600081840152601f19601f82011690508083019250505050505050919291929080359060200190929190505050610a1b565b6040518080602001828103825283818151815260200191508051906020019080838360005b838110156106075780820151818401526020810190506105ec565b50505050905090810190601f1680156106345780820380516001836020036101000a031916815260200191505b509250505060405180910390f35b34801561064e57600080fd5b506107126004803603604081101561066557600080fd5b810190808035906020019064010000000081111561068257600080fd5b82018360208201111561069457600080fd5b803590602001918460018302840111640100000000831117156106b657600080fd5b91908080601f016020809104026020016040519081016040528093929190818152602001838380828437600081840152601f19601f82011690508083019250505050505050919291929080359060200190929190505050610a2f565b6040518082815260200191505060405180910390f35b34801561073457600080fd5b506107f86004803603604081101561074b57600080fd5b810190808035906020019064010000000081111561076857600080fd5b82018360208201111561077a57600080fd5b8035906020019184600183028401116401000000008311171561079c57600080fd5b91908080601f016020809104026020016040519081016040528093929190818152602001838380828437600081840152601f19601f82011690508083019250505050505050919291929080359060200190929190505050610a49565b6040518080602001828103825283818151815260200191508051906020019080838360005b8381101561083857808201518184015260208101905061081d565b50505050905090810190601f1680156108655780820380516001836020036101000a031916815260200191505b509250505060405180910390f35b600081805190602001209050919050565b600060208301820151905092915050565b60006108a2826000610884565b6001029050919050565b6060835182840111151515610929576040517f08c379a00000000000000000000000000000000000000000000000000000000081526004018080602001828103825260068152602001807f617364617364000000000000000000000000000000000000000000000000000081525060200191505060405180910390fd5b816040519080825280601f01601f19166020018201604052801561095c5781602001600182028038833980820191505090505b50905060008090505b82811015610a13578484820181518110151561097d57fe5b9060200101517f010000000000000000000000000000000000000000000000000000000000000090047f01000000000000000000000000000000000000000000000000000000000000000282828151811015156109d657fe5b9060200101907effffffffffffffffffffffffffffffffffffffffffffffffffffffffffffff1916908160001a9053508080600101915050610965565b509392505050565b6060610a278383610a49565b905092915050565b6000610a418360208402600401610884565b905092915050565b606060006004610a598585610a2f565b0190506000610a688583610884565b9050610a788560208401836108ac565b925050509291505056fea165627a7a7230582015f67e4c0c4c1fc739e53286d11559a3eda97b46f8779607909ca8e2b39161240029",
  "source": "pragma solidity >=0.4.0 <0.6.0;\n\ncontract RecipientUtils {\n\n    //return the signature of a method.\n    // (can also be done off-chain)\n    function sig(string memory methodSig) public pure returns (bytes4) {\n        return bytes4(keccak256(bytes(methodSig)));\n    }\n\n    /**\n     * extract method sig from encoded function call\n     */\n    function getMethodSig(bytes memory msg_data) public pure returns (bytes4) {\n        return bytes4(bytes32(extractUint(msg_data, 0)));\n    }\n\n    /**\n     * extract parameter from encoded-function block.\n     * see: https://solidity.readthedocs.io/en/develop/abi-spec.html#formal-specification-of-the-encoding\n     * note that the type of the parameter must be static.\n     * the return value should be casted to the right type.\n     */\n    function getParam(bytes memory msg_data, uint index) public pure returns (uint) {\n        return extractUint(msg_data, 4 + index * 32);\n    }\n\n    /**\n     * extract dynamic-sized (string/bytes) parameter.\n     * we assume that there ARE dynamic parameters, hence getParam(0) is the offset to the first\n     * dynamic param\n     * https://solidity.readthedocs.io/en/develop/abi-spec.html#use-of-dynamic-types\n     */\n    function getBytesParam(bytes memory msg_data, uint index) public pure returns (bytes memory ret)  {\n        uint ofs = getParam(msg_data,index)+4;\n        uint len = extractUint(msg_data, ofs);\n        ret = extractBytes(msg_data, ofs+32, len);\n    }\n\n    function getStringParam(bytes memory msg_data, uint index) public pure returns (string memory) {\n        return string(getBytesParam(msg_data,index));\n    }\n\n\n    /**\n     * extract bytes32 block from a memory source.\n     * if offset is too large, then pad result with zeros.\n     * @param source a block of memory to extract from.\n     * @param ofs offset to start.\n     */\n    function extractUint(bytes memory source, uint ofs) public pure returns (uint result) {\n        assembly {\n            result := mload(add(ofs, add(source, 32)))\n        }\n    }\n\n    //extracts bytes from a memory block\n    function extractBytes(bytes memory source, uint ofs, uint len) public pure returns (bytes memory ret) {\n        //TODO: check overflows (not really needed. it will exhaust gas on overflows)\n        require( ofs+len <= source.length, \"asdasd\");\n        //TODO: assembly?\n        ret = new bytes(len);\n        for ( uint i=0; i<len; i++ ) {\n            ret[i] = source[i+ofs];\n        }\n    }\n}",
  "sourcePath": "/Users/dennisonzeppelin/Documents/nodeGSNRelay/contracts/RecipientUtils.sol",
  "compiler": {
    "name": "solc",
    "version": "0.5.0+commit.1d4f565a.Emscripten.clang"
  },
  "schemaVersion": "3.0.6",
  "updatedAt": "2019-04-28T22:40:20.941Z",
  "devdoc": {
    "methods": {
      "extractUint(bytes,uint256)": {
        "params": {
          "ofs": "offset to start.",
          "source": "a block of memory to extract from."
        }
      }
    }
  },
  "userdoc": {
    "methods": {
      "extractUint(bytes,uint256)": {
        "notice": "extract bytes32 block from a memory source. if offset is too large, then pad result with zeros."
      },
      "getBytesParam(bytes,uint256)": {
        "notice": "extract dynamic-sized (string/bytes) parameter. we assume that there ARE dynamic parameters, hence getParam(0) is the offset to the first dynamic param https://solidity.readthedocs.io/en/develop/abi-spec.html#use-of-dynamic-types"
      },
      "getMethodSig(bytes)": {
        "notice": "extract method sig from encoded function call"
      },
      "getParam(bytes,uint256)": {
        "notice": "extract parameter from encoded-function block. see: https://solidity.readthedocs.io/en/develop/abi-spec.html#formal-specification-of-the-encoding note that the type of the parameter must be static. the return value should be casted to the right type."
      }
    }
  }
}