{
  "contractName": "SampleRecipient",
  "abi": [
    {
      "constant": true,
      "inputs": [],
      "name": "get_hub_addr",
      "outputs": [
        {
          "name": "",
          "type": "address"
        }
      ],
      "payable": false,
      "stateMutability": "view",
      "type": "function"
    },
    {
      "constant": true,
      "inputs": [],
      "name": "blacklisted",
      "outputs": [
        {
          "name": "",
          "type": "address"
        }
      ],
      "payable": false,
      "stateMutability": "view",
      "type": "function"
    },
    {
      "constant": true,
      "inputs": [
        {
          "name": "",
          "type": "address"
        }
      ],
      "name": "relays_whitelist",
      "outputs": [
        {
          "name": "",
          "type": "bool"
        }
      ],
      "payable": false,
      "stateMutability": "view",
      "type": "function"
    },
    {
      "constant": true,
      "inputs": [],
      "name": "get_message_data",
      "outputs": [
        {
          "name": "",
          "type": "bytes"
        }
      ],
      "payable": false,
      "stateMutability": "view",
      "type": "function"
    },
    {
      "constant": true,
      "inputs": [],
      "name": "get_sender",
      "outputs": [
        {
          "name": "",
          "type": "address"
        }
      ],
      "payable": false,
      "stateMutability": "view",
      "type": "function"
    },
    {
      "constant": true,
      "inputs": [
        {
          "name": "orig_sender",
          "type": "address"
        },
        {
          "name": "msg_data",
          "type": "bytes"
        }
      ],
      "name": "get_sender_from_data",
      "outputs": [
        {
          "name": "",
          "type": "address"
        }
      ],
      "payable": false,
      "stateMutability": "view",
      "type": "function"
    },
    {
      "constant": true,
      "inputs": [],
      "name": "get_recipient_balance",
      "outputs": [
        {
          "name": "",
          "type": "uint256"
        }
      ],
      "payable": false,
      "stateMutability": "view",
      "type": "function"
    },
    {
      "inputs": [
        {
          "name": "rhub",
          "type": "address"
        }
      ],
      "payable": false,
      "stateMutability": "nonpayable",
      "type": "constructor"
    },
    {
      "payable": true,
      "stateMutability": "payable",
      "type": "fallback"
    },
    {
      "anonymous": false,
      "inputs": [
        {
          "indexed": false,
          "name": "message",
          "type": "string"
        }
      ],
      "name": "Reverting",
      "type": "event"
    },
    {
      "anonymous": false,
      "inputs": [
        {
          "indexed": false,
          "name": "message",
          "type": "string"
        },
        {
          "indexed": false,
          "name": "real_sender",
          "type": "address"
        },
        {
          "indexed": false,
          "name": "msg_sender",
          "type": "address"
        },
        {
          "indexed": false,
          "name": "origin",
          "type": "address"
        }
      ],
      "name": "SampleRecipientEmitted",
      "type": "event"
    },
    {
      "anonymous": false,
      "inputs": [
        {
          "indexed": false,
          "name": "used_gas",
          "type": "uint256"
        }
      ],
      "name": "SampleRecipientPostCall",
      "type": "event"
    },
    {
      "constant": false,
      "inputs": [],
      "name": "deposit",
      "outputs": [],
      "payable": true,
      "stateMutability": "payable",
      "type": "function"
    },
    {
      "constant": false,
      "inputs": [],
      "name": "withdraw",
      "outputs": [],
      "payable": false,
      "stateMutability": "nonpayable",
      "type": "function"
    },
    {
      "constant": false,
      "inputs": [],
      "name": "testRevert",
      "outputs": [],
      "payable": false,
      "stateMutability": "nonpayable",
      "type": "function"
    },
    {
      "constant": false,
      "inputs": [
        {
          "name": "message",
          "type": "string"
        }
      ],
      "name": "emitMessage",
      "outputs": [],
      "payable": false,
      "stateMutability": "nonpayable",
      "type": "function"
    },
    {
      "constant": false,
      "inputs": [
        {
          "name": "relay",
          "type": "address"
        },
        {
          "name": "on",
          "type": "bool"
        }
      ],
      "name": "set_relay",
      "outputs": [],
      "payable": false,
      "stateMutability": "nonpayable",
      "type": "function"
    },
    {
      "constant": false,
      "inputs": [
        {
          "name": "addr",
          "type": "address"
        }
      ],
      "name": "set_blacklisted",
      "outputs": [],
      "payable": false,
      "stateMutability": "nonpayable",
      "type": "function"
    },
    {
      "constant": true,
      "inputs": [
        {
          "name": "relay",
          "type": "address"
        },
        {
          "name": "from",
          "type": "address"
        },
        {
          "name": "",
          "type": "bytes"
        },
        {
          "name": "",
          "type": "uint256"
        },
        {
          "name": "",
          "type": "uint256"
        }
      ],
      "name": "accept_relayed_call",
      "outputs": [
        {
          "name": "",
          "type": "uint32"
        }
      ],
      "payable": false,
      "stateMutability": "view",
      "type": "function"
    },
    {
      "constant": false,
      "inputs": [
        {
          "name": "",
          "type": "address"
        },
        {
          "name": "",
          "type": "address"
        },
        {
          "name": "",
          "type": "bytes"
        },
        {
          "name": "",
          "type": "bool"
        },
        {
          "name": "used_gas",
          "type": "uint256"
        },
        {
          "name": "transaction_fee",
          "type": "uint256"
        }
      ],
      "name": "post_relayed_call",
      "outputs": [],
      "payable": false,
      "stateMutability": "nonpayable",
      "type": "function"
    }
  ],
  "bytecode": "0x60806040523480156200001157600080fd5b5060405160208062001609833981018060405260208110156200003357600080fd5b81019080805190602001909291905050506200005e8162000065640100000000026401000000009004565b50620002c4565b600073ffffffffffffffffffffffffffffffffffffffff166000809054906101000a900473ffffffffffffffffffffffffffffffffffffffff1673ffffffffffffffffffffffffffffffffffffffff161415156200012b576040517f08c379a00000000000000000000000000000000000000000000000000000000081526004018080602001828103825260208152602001807f696e69745f72656c61795f6875623a207268756220616c72656164792073657481525060200191505060405180910390fd5b620001458162000148640100000000026401000000009004565b50565b806000806101000a81548173ffffffffffffffffffffffffffffffffffffffff021916908373ffffffffffffffffffffffffffffffffffffffff160217905550620001a1620001a5640100000000026401000000009004565b5050565b6000620001c06200029b640100000000026401000000009004565b73ffffffffffffffffffffffffffffffffffffffff166370a08231306040518263ffffffff167c0100000000000000000000000000000000000000000000000000000000028152600401808273ffffffffffffffffffffffffffffffffffffffff1673ffffffffffffffffffffffffffffffffffffffff16815260200191505060206040518083038186803b1580156200025957600080fd5b505afa1580156200026e573d6000803e3d6000fd5b505050506040513d60208110156200028557600080fd5b8101908080519060200190929190505050905090565b60008060009054906101000a900473ffffffffffffffffffffffffffffffffffffffff16905090565b61133580620002d46000396000f3fe6080604052600436106100db576000357c0100000000000000000000000000000000000000000000000000000000900463ffffffff16806304badade146100dd5780632ac0df26146101345780633ccfd60b146101fc578063516dea301461021357806359c3cbdf1461033b5780635bae9ce91461038c5780635dea186c146103e357806384bc55eb1461051f5780639171956814610588578063a26388bb14610618578063a8d509ff1461062f578063c304e7a414610686578063ca365699146107ae578063d0e30db01461080b578063ed6cd5d314610815575b005b3480156100e957600080fd5b506100f2610840565b604051808273ffffffffffffffffffffffffffffffffffffffff1673ffffffffffffffffffffffffffffffffffffffff16815260200191505060405180910390f35b34801561014057600080fd5b506101fa6004803603602081101561015757600080fd5b810190808035906020019064010000000081111561017457600080fd5b82018360208201111561018657600080fd5b803590602001918460018302840111640100000000831117156101a857600080fd5b91908080601f016020809104026020016040519081016040528093929190818152602001838380828437600081840152601f19601f820116905080830192505050505050509192919290505050610869565b005b34801561020857600080fd5b506102116109ab565b005b34801561021f57600080fd5b50610339600480360360c081101561023657600080fd5b81019080803573ffffffffffffffffffffffffffffffffffffffff169060200190929190803573ffffffffffffffffffffffffffffffffffffffff1690602001909291908035906020019064010000000081111561029357600080fd5b8201836020820111156102a557600080fd5b803590602001918460018302840111640100000000831117156102c757600080fd5b91908080601f016020809104026020016040519081016040528093929190818152602001838380828437600081840152601f19601f8201169050808301925050505050505091929192908035151590602001909291908035906020019092919080359060200190929190505050610b1b565b005b34801561034757600080fd5b5061038a6004803603602081101561035e57600080fd5b81019080803573ffffffffffffffffffffffffffffffffffffffff169060200190929190505050610b6c565b005b34801561039857600080fd5b506103a1610bb0565b604051808273ffffffffffffffffffffffffffffffffffffffff1673ffffffffffffffffffffffffffffffffffffffff16815260200191505060405180910390f35b3480156103ef57600080fd5b506104fd600480360360a081101561040657600080fd5b81019080803573ffffffffffffffffffffffffffffffffffffffff169060200190929190803573ffffffffffffffffffffffffffffffffffffffff1690602001909291908035906020019064010000000081111561046357600080fd5b82018360208201111561047557600080fd5b8035906020019184600183028401116401000000008311171561049757600080fd5b91908080601f016020809104026020016040519081016040528093929190818152602001838380828437600081840152601f19601f8201169050808301925050505050505091929192908035906020019092919080359060200190929190505050610bd6565b604051808263ffffffff1663ffffffff16815260200191505060405180910390f35b34801561052b57600080fd5b5061056e6004803603602081101561054257600080fd5b81019080803573ffffffffffffffffffffffffffffffffffffffff169060200190929190505050610ca0565b604051808215151515815260200191505060405180910390f35b34801561059457600080fd5b5061059d610cc0565b6040518080602001828103825283818151815260200191508051906020019080838360005b838110156105dd5780820151818401526020810190506105c2565b50505050905090810190601f16801561060a5780820380516001836020036101000a031916815260200191505b509250505060405180910390f35b34801561062457600080fd5b5061062d610e60565b005b34801561063b57600080fd5b50610644610f6e565b604051808273ffffffffffffffffffffffffffffffffffffffff1673ffffffffffffffffffffffffffffffffffffffff16815260200191505060405180910390f35b34801561069257600080fd5b5061076c600480360360408110156106a957600080fd5b81019080803573ffffffffffffffffffffffffffffffffffffffff169060200190929190803590602001906401000000008111156106e657600080fd5b8201836020820111156106f857600080fd5b8035906020019184600183028401116401000000008311171561071a57600080fd5b91908080601f016020809104026020016040519081016040528093929190818152602001838380828437600081840152601f19601f820116905080830192505050505050509192919290505050610fc4565b604051808273ffffffffffffffffffffffffffffffffffffffff1673ffffffffffffffffffffffffffffffffffffffff16815260200191505060405180910390f35b3480156107ba57600080fd5b50610809600480360360408110156107d157600080fd5b81019080803573ffffffffffffffffffffffffffffffffffffffff16906020019092919080351515906020019092919050505061110f565b005b61081361116a565b005b34801561082157600080fd5b5061082a6111f0565b6040518082815260200191505060405180910390f35b60008060009054906101000a900473ffffffffffffffffffffffffffffffffffffffff16905090565b7f5ce9234bb214fd284a9d1d3873fe7da80eab992d476d73f61d2928b7274f069981610893610f6e565b333260405180806020018573ffffffffffffffffffffffffffffffffffffffff1673ffffffffffffffffffffffffffffffffffffffff1681526020018473ffffffffffffffffffffffffffffffffffffffff1673ffffffffffffffffffffffffffffffffffffffff1681526020018373ffffffffffffffffffffffffffffffffffffffff1673ffffffffffffffffffffffffffffffffffffffff168152602001828103825286818151815260200191508051906020019080838360005b8381101561096b578082015181840152602081019050610950565b50505050905090810190601f1680156109985780820380516001836020036101000a031916815260200191505b509550505050505060405180910390a150565b60006109b56112d2565b73ffffffffffffffffffffffffffffffffffffffff166327e235e3306040518263ffffffff167c0100000000000000000000000000000000000000000000000000000000028152600401808273ffffffffffffffffffffffffffffffffffffffff1673ffffffffffffffffffffffffffffffffffffffff16815260200191505060206040518083038186803b158015610a4d57600080fd5b505afa158015610a61573d6000803e3d6000fd5b505050506040513d6020811015610a7757600080fd5b81019080805190602001909291905050509050610a926112d2565b73ffffffffffffffffffffffffffffffffffffffff16632e1a7d4d826040518263ffffffff167c010000000000000000000000000000000000000000000000000000000002815260040180828152602001915050600060405180830381600087803b158015610b0057600080fd5b505af1158015610b14573d6000803e3d6000fd5b5050505050565b7f130d56aea7f812028d0721defa89982b62d7c4d4b81c3bca4896d9413cf725ee60648083013a850202811515610b4e57fe5b046040518082815260200191505060405180910390a1505050505050565b80600260006101000a81548173ffffffffffffffffffffffffffffffffffffffff021916908373ffffffffffffffffffffffffffffffffffffffff16021790555050565b600260009054906101000a900473ffffffffffffffffffffffffffffffffffffffff1681565b6000600160008773ffffffffffffffffffffffffffffffffffffffff1673ffffffffffffffffffffffffffffffffffffffff16815260200190815260200160002060009054906101000a900460ff1615610c335760009050610c97565b600260009054906101000a900473ffffffffffffffffffffffffffffffffffffffff1673ffffffffffffffffffffffffffffffffffffffff168573ffffffffffffffffffffffffffffffffffffffff161415610c925760039050610c97565b600090505b95945050505050565b60016020528060005260406000206000915054906101000a900460ff1681565b6060806000368080601f016020809104026020016040519081016040528093929190818152602001838380828437600081840152601f19601f820116905080830192505050505050509050610d13610840565b73ffffffffffffffffffffffffffffffffffffffff163373ffffffffffffffffffffffffffffffffffffffff161415610e595760146000369050036040519080825280601f01601f191660200182016040528015610d805781602001600182028038833980820191505090505b50905060008090505b8151811015610e5757600036828181101515610da157fe5b905001357f010000000000000000000000000000000000000000000000000000000000000090047f0100000000000000000000000000000000000000000000000000000000000000027effffffffffffffffffffffffffffffffffffffffffffffffffffffffffffff19168282815181101515610e1a57fe5b9060200101907effffffffffffffffffffffffffffffffffffffffffffffffffffffffffffff1916908160001a9053508080600101915050610d89565b505b8091505090565b600073ffffffffffffffffffffffffffffffffffffffff163073ffffffffffffffffffffffffffffffffffffffff16141515610f04576040517f08c379a000000000000000000000000000000000000000000000000000000000815260040180806020018281038252600b8152602001807f616c77617973206661696c00000000000000000000000000000000000000000081525060200191505060405180910390fd5b7f3f110cf99894407239c5fa1bf0523ea12b54ef6eb3e88be600b6a7f0ff76eb0e6040518080602001828103825260208152602001807f696620796f7520736565207468697320726576657274206661696c65642e2e2e81525060200191505060405180910390a1565b6000610fbf336000368080601f016020809104026020016040519081016040528093929190818152602001838380828437600081840152601f19601f82011690508083019250505050505050610fc4565b905090565b600080839050610fd2610840565b73ffffffffffffffffffffffffffffffffffffffff168473ffffffffffffffffffffffffffffffffffffffff16141561110557606060146040519080825280601f01601f19166020018201604052801561103b5781602001600182028038833980820191505090505b50905060008090505b81518110156110f757848183518751030181518110151561106157fe5b9060200101517f010000000000000000000000000000000000000000000000000000000000000090047f01000000000000000000000000000000000000000000000000000000000000000282828151811015156110ba57fe5b9060200101907effffffffffffffffffffffffffffffffffffffffffffffffffffffffffffff1916908160001a9053508080600101915050611044565b50611101816112fb565b9150505b8091505092915050565b80600160008473ffffffffffffffffffffffffffffffffffffffff1673ffffffffffffffffffffffffffffffffffffffff16815260200190815260200160002060006101000a81548160ff0219169083151502179055505050565b6111726112d2565b73ffffffffffffffffffffffffffffffffffffffff1663d0e30db0346040518263ffffffff167c01000000000000000000000000000000000000000000000000000000000281526004016000604051808303818588803b1580156111d557600080fd5b505af11580156111e9573d6000803e3d6000fd5b5050505050565b60006111fa6112d2565b73ffffffffffffffffffffffffffffffffffffffff166370a08231306040518263ffffffff167c0100000000000000000000000000000000000000000000000000000000028152600401808273ffffffffffffffffffffffffffffffffffffffff1673ffffffffffffffffffffffffffffffffffffffff16815260200191505060206040518083038186803b15801561129257600080fd5b505afa1580156112a6573d6000803e3d6000fd5b505050506040513d60208110156112bc57600080fd5b8101908080519060200190929190505050905090565b60008060009054906101000a900473ffffffffffffffffffffffffffffffffffffffff16905090565b60006014820151905091905056fea165627a7a72305820358ff011f0194fe5ee3362a825976d87085e84fcd6e5e8acf1f6e8afe9244ed30029",
  "source": "pragma solidity >=0.4.0 <0.6.0;\n\nimport \"./RelayHub.sol\";\nimport \"./RelayRecipient.sol\";\n\ncontract SampleRecipient is RelayRecipient {\n\n    mapping (address => bool) public relays_whitelist;\n\n    constructor(RelayHub rhub) public {\n        init_relay_hub(rhub);\n    }\n\n    function deposit() public payable {\n        get_relay_hub().deposit.value(msg.value)();\n    }\n\n    function withdraw() public {\n        uint balance = get_relay_hub().balances(address(this));\n        get_relay_hub().withdraw(balance);\n    }\n\n    event Reverting(string message);\n    function testRevert() public {\n        require( address(this) == address(0), \"always fail\" );\n        emit Reverting(\"if you see this revert failed...\" );\n    }\n\n\n    function () external payable {}\n\n    event SampleRecipientEmitted(string message, address real_sender, address msg_sender, address origin);\n    function emitMessage(string memory message) public {\n        emit SampleRecipientEmitted(message, get_sender(), msg.sender, tx.origin);\n    }\n\n    function set_relay(address relay, bool on) public {\n        relays_whitelist[relay] = on;\n    }\n\n    address public blacklisted;\n\n    function set_blacklisted(address addr) public {\n        blacklisted = addr;\n    }\n\n    function accept_relayed_call(address relay, address from, bytes memory /*encoded_function*/, uint /*gas_price*/, uint /*transaction_fee*/ ) public view returns(uint32) {\n        // The factory accepts relayed transactions from anyone, so we whitelist our own relays to prevent abuse.\n        // This protection only makes sense for contracts accepting anonymous calls, and therefore not used by Gatekeeper or Multisig.\n        // May be protected by a user_credits map managed by a captcha-protected web app or association with a google account.\n        if ( relays_whitelist[relay] ) return 0;\n        if (from == blacklisted) return 3;\n\n\t\treturn 0;\n    }\n\n    event SampleRecipientPostCall(uint used_gas );\n\n    function post_relayed_call(address /*relay*/ , address /*from*/, bytes memory /*encoded_function*/, bool /*success*/, uint used_gas, uint transaction_fee ) public {\n\n        emit SampleRecipientPostCall(used_gas * tx.gasprice * (transaction_fee+100)/100);\n    }\n\n}\n\n",
  "sourcePath": "/Users/dennisonzeppelin/Documents/nodeGSNRelay/contracts/SampleRecipient.sol",
  "compiler": {
    "name": "solc",
    "version": "0.5.0+commit.1d4f565a.Emscripten.clang"
  },
  "schemaVersion": "3.0.6",
  "updatedAt": "2019-04-28T22:40:20.963Z",
  "devdoc": {
    "methods": {}
  },
  "userdoc": {
    "methods": {
      "get_recipient_balance()": {
        "notice": "return the balance of this contract. Note that this method will revert on configuration error (invalid relay address)"
      }
    }
  }
}