{
  "contractName": "TestRecipientUtils",
  "abi": [
    {
      "constant": true,
      "inputs": [
        {
          "name": "methodSig",
          "type": "string"
        }
      ],
      "name": "sig",
      "outputs": [
        {
          "name": "",
          "type": "bytes4"
        }
      ],
      "payable": false,
      "stateMutability": "pure",
      "type": "function"
    },
    {
      "constant": true,
      "inputs": [
        {
          "name": "source",
          "type": "bytes"
        },
        {
          "name": "ofs",
          "type": "uint256"
        }
      ],
      "name": "extractUint",
      "outputs": [
        {
          "name": "result",
          "type": "uint256"
        }
      ],
      "payable": false,
      "stateMutability": "pure",
      "type": "function"
    },
    {
      "constant": true,
      "inputs": [
        {
          "name": "msg_data",
          "type": "bytes"
        }
      ],
      "name": "getMethodSig",
      "outputs": [
        {
          "name": "",
          "type": "bytes4"
        }
      ],
      "payable": false,
      "stateMutability": "pure",
      "type": "function"
    },
    {
      "constant": true,
      "inputs": [
        {
          "name": "source",
          "type": "bytes"
        },
        {
          "name": "ofs",
          "type": "uint256"
        },
        {
          "name": "len",
          "type": "uint256"
        }
      ],
      "name": "extractBytes",
      "outputs": [
        {
          "name": "ret",
          "type": "bytes"
        }
      ],
      "payable": false,
      "stateMutability": "pure",
      "type": "function"
    },
    {
      "constant": true,
      "inputs": [
        {
          "name": "msg_data",
          "type": "bytes"
        },
        {
          "name": "index",
          "type": "uint256"
        }
      ],
      "name": "getStringParam",
      "outputs": [
        {
          "name": "",
          "type": "string"
        }
      ],
      "payable": false,
      "stateMutability": "pure",
      "type": "function"
    },
    {
      "constant": true,
      "inputs": [
        {
          "name": "msg_data",
          "type": "bytes"
        },
        {
          "name": "index",
          "type": "uint256"
        }
      ],
      "name": "getParam",
      "outputs": [
        {
          "name": "",
          "type": "uint256"
        }
      ],
      "payable": false,
      "stateMutability": "pure",
      "type": "function"
    },
    {
      "constant": true,
      "inputs": [
        {
          "name": "msg_data",
          "type": "bytes"
        },
        {
          "name": "index",
          "type": "uint256"
        }
      ],
      "name": "getBytesParam",
      "outputs": [
        {
          "name": "ret",
          "type": "bytes"
        }
      ],
      "payable": false,
      "stateMutability": "pure",
      "type": "function"
    },
    {
      "anonymous": false,
      "inputs": [],
      "name": "Unused",
      "type": "event"
    },
    {
      "constant": false,
      "inputs": [
        {
          "name": "",
          "type": "uint256"
        },
        {
          "name": "",
          "type": "string"
        },
        {
          "name": "",
          "type": "uint256"
        },
        {
          "name": "",
          "type": "bytes"
        }
      ],
      "name": "testFunc",
      "outputs": [],
      "payable": false,
      "stateMutability": "nonpayable",
      "type": "function"
    }
  ],
  "bytecode": "0x608060405234801561001057600080fd5b50610c5e806100206000396000f3fe60806040526004361061008e576000357c0100000000000000000000000000000000000000000000000000000000900463ffffffff1680633189a2ec146100935780634b80821514610206578063823e0669146103205780638a173e3a14610406578063993c3b2c14610520578063b046e4b414610675578063c60d756e146107c0578063d1d3a765146108a6575b600080fd5b34801561009f57600080fd5b50610204600480360360808110156100b657600080fd5b8101908080359060200190929190803590602001906401000000008111156100dd57600080fd5b8201836020820111156100ef57600080fd5b8035906020019184600183028401116401000000008311171561011157600080fd5b91908080601f016020809104026020016040519081016040528093929190818152602001838380828437600081840152601f19601f820116905080830192505050505050509192919290803590602001909291908035906020019064010000000081111561017e57600080fd5b82018360208201111561019057600080fd5b803590602001918460018302840111640100000000831117156101b257600080fd5b91908080601f016020809104026020016040519081016040528093929190818152602001838380828437600081840152601f19601f8201169050808301925050505050505091929192905050506109f1565b005b34801561021257600080fd5b506102cc6004803603602081101561022957600080fd5b810190808035906020019064010000000081111561024657600080fd5b82018360208201111561025857600080fd5b8035906020019184600183028401116401000000008311171561027a57600080fd5b91908080601f016020809104026020016040519081016040528093929190818152602001838380828437600081840152601f19601f820116905080830192505050505050509192919290505050610a23565b60405180827bffffffffffffffffffffffffffffffffffffffffffffffffffffffff19167bffffffffffffffffffffffffffffffffffffffffffffffffffffffff1916815260200191505060405180910390f35b34801561032c57600080fd5b506103f06004803603604081101561034357600080fd5b810190808035906020019064010000000081111561036057600080fd5b82018360208201111561037257600080fd5b8035906020019184600183028401116401000000008311171561039457600080fd5b91908080601f016020809104026020016040519081016040528093929190818152602001838380828437600081840152601f19601f82011690508083019250505050505050919291929080359060200190929190505050610a34565b6040518082815260200191505060405180910390f35b34801561041257600080fd5b506104cc6004803603602081101561042957600080fd5b810190808035906020019064010000000081111561044657600080fd5b82018360208201111561045857600080fd5b8035906020019184600183028401116401000000008311171561047a57600080fd5b91908080601f016020809104026020016040519081016040528093929190818152602001838380828437600081840152601f19601f820116905080830192505050505050509192919290505050610a45565b60405180827bffffffffffffffffffffffffffffffffffffffffffffffffffffffff19167bffffffffffffffffffffffffffffffffffffffffffffffffffffffff1916815260200191505060405180910390f35b34801561052c57600080fd5b506105fa6004803603606081101561054357600080fd5b810190808035906020019064010000000081111561056057600080fd5b82018360208201111561057257600080fd5b8035906020019184600183028401116401000000008311171561059457600080fd5b91908080601f016020809104026020016040519081016040528093929190818152602001838380828437600081840152601f19601f8201169050808301925050505050505091929192908035906020019092919080359060200190929190505050610a5c565b6040518080602001828103825283818151815260200191508051906020019080838360005b8381101561063a57808201518184015260208101905061061f565b50505050905090810190601f1680156106675780820380516001836020036101000a031916815260200191505b509250505060405180910390f35b34801561068157600080fd5b506107456004803603604081101561069857600080fd5b81019080803590602001906401000000008111156106b557600080fd5b8201836020820111156106c757600080fd5b803590602001918460018302840111640100000000831117156106e957600080fd5b91908080601f016020809104026020016040519081016040528093929190818152602001838380828437600081840152601f19601f82011690508083019250505050505050919291929080359060200190929190505050610bcb565b6040518080602001828103825283818151815260200191508051906020019080838360005b8381101561078557808201518184015260208101905061076a565b50505050905090810190601f1680156107b25780820380516001836020036101000a031916815260200191505b509250505060405180910390f35b3480156107cc57600080fd5b50610890600480360360408110156107e357600080fd5b810190808035906020019064010000000081111561080057600080fd5b82018360208201111561081257600080fd5b8035906020019184600183028401116401000000008311171561083457600080fd5b91908080601f016020809104026020016040519081016040528093929190818152602001838380828437600081840152601f19601f82011690508083019250505050505050919291929080359060200190929190505050610bdf565b6040518082815260200191505060405180910390f35b3480156108b257600080fd5b50610976600480360360408110156108c957600080fd5b81019080803590602001906401000000008111156108e657600080fd5b8201836020820111156108f857600080fd5b8035906020019184600183028401116401000000008311171561091a57600080fd5b91908080601f016020809104026020016040519081016040528093929190818152602001838380828437600081840152601f19601f82011690508083019250505050505050919291929080359060200190929190505050610bf9565b6040518080602001828103825283818151815260200191508051906020019080838360005b838110156109b657808201518184015260208101905061099b565b50505050905090810190601f1680156109e35780820380516001836020036101000a031916815260200191505b509250505060405180910390f35b7f3a66de7d22c143528f526a561b1bfcde599c1f6199eff6d3edd313da50a82b2860405160405180910390a150505050565b600081805190602001209050919050565b600060208301820151905092915050565b6000610a52826000610a34565b6001029050919050565b6060835182840111151515610ad9576040517f08c379a00000000000000000000000000000000000000000000000000000000081526004018080602001828103825260068152602001807f617364617364000000000000000000000000000000000000000000000000000081525060200191505060405180910390fd5b816040519080825280601f01601f191660200182016040528015610b0c5781602001600182028038833980820191505090505b50905060008090505b82811015610bc35784848201815181101515610b2d57fe5b9060200101517f010000000000000000000000000000000000000000000000000000000000000090047f0100000000000000000000000000000000000000000000000000000000000000028282815181101515610b8657fe5b9060200101907effffffffffffffffffffffffffffffffffffffffffffffffffffffffffffff1916908160001a9053508080600101915050610b15565b509392505050565b6060610bd78383610bf9565b905092915050565b6000610bf18360208402600401610a34565b905092915050565b606060006004610c098585610bdf565b0190506000610c188583610a34565b9050610c28856020840183610a5c565b925050509291505056fea165627a7a723058209745ed9989c9ace928a0335ce17f2196bf31277199d591ed901558ddcacc72df0029",
  "source": "pragma solidity >=0.4.0 <0.6.0;\n\nimport './RecipientUtils.sol';\n\ncontract TestRecipientUtils is RecipientUtils {\n\n    event Unused();\n    function testFunc(uint , string memory, uint , bytes memory ) public {\n        emit Unused();  //just to avoid warnings..\n    }\n\n}",
  "sourcePath": "/Users/dennisonzeppelin/Documents/nodeGSNRelay/contracts/TestRecipientUtils.sol",
  "compiler": {
    "name": "solc",
    "version": "0.5.0+commit.1d4f565a.Emscripten.clang"
  },
  "schemaVersion": "3.0.6",
  "updatedAt": "2019-04-28T15:47:01.922Z",
  "devdoc": {
    "methods": {
      "extractUint(bytes,uint256)": {
        "params": {
          "ofs": "offset to start.",
          "source": "a block of memory to extract from."
        }
      }
    }
  },
  "userdoc": {
    "methods": {
      "extractUint(bytes,uint256)": {
        "notice": "extract bytes32 block from a memory source. if offset is too large, then pad result with zeros."
      },
      "getBytesParam(bytes,uint256)": {
        "notice": "extract dynamic-sized (string/bytes) parameter. we assume that there ARE dynamic parameters, hence getParam(0) is the offset to the first dynamic param https://solidity.readthedocs.io/en/develop/abi-spec.html#use-of-dynamic-types"
      },
      "getMethodSig(bytes)": {
        "notice": "extract method sig from encoded function call"
      },
      "getParam(bytes,uint256)": {
        "notice": "extract parameter from encoded-function block. see: https://solidity.readthedocs.io/en/develop/abi-spec.html#formal-specification-of-the-encoding note that the type of the parameter must be static. the return value should be casted to the right type."
      }
    }
  }
}